{
  "contractName": "Manager",
  "abi": [
    {
      "anonymous": false,
      "inputs": [
        {
          "indexed": false,
          "internalType": "address",
          "name": "projectAddress",
          "type": "address"
        }
      ],
      "name": "CreateProject",
      "type": "event"
    },
    {
      "inputs": [
        {
          "internalType": "string",
          "name": "name",
          "type": "string"
        },
        {
          "internalType": "string",
          "name": "des",
          "type": "string"
        },
        {
          "internalType": "address",
          "name": "creator",
          "type": "address"
        },
        {
          "internalType": "uint256",
          "name": "min",
          "type": "uint256"
        },
        {
          "internalType": "uint256",
          "name": "target",
          "type": "uint256"
        },
        {
          "internalType": "uint256",
          "name": "finishTime",
          "type": "uint256"
        }
      ],
      "name": "createProject",
      "outputs": [],
      "stateMutability": "nonpayable",
      "type": "function"
    },
    {
      "inputs": [],
      "name": "getProjects",
      "outputs": [
        {
          "internalType": "address[]",
          "name": "",
          "type": "address[]"
        }
      ],
      "stateMutability": "view",
      "type": "function",
      "constant": true
    }
  ],
  "bytecode": "0x608060405234801561001057600080fd5b506132a1806100206000396000f3fe60806040523480156200001157600080fd5b50600436106200003a5760003560e01c8063dcc60128146200003f578063df2970e11462000061575b600080fd5b6200004962000081565b6040516200005891906200030d565b60405180910390f35b6200007f600480360381019062000079919062000513565b62000111565b005b606060008054806020026020016040519081016040528092919081815260200182805480156200010757602002820191906000526020600020905b8160009054906101000a900473ffffffffffffffffffffffffffffffffffffffff1673ffffffffffffffffffffffffffffffffffffffff1681526020019060010190808311620000bc575b5050505050905090565b60008686868686866040516200012790620001fd565b6200013896959493929190620006a2565b604051809103906000f08015801562000155573d6000803e3d6000fd5b5090506000819080600181540180825580915050600190039060005260206000200160009091909190916101000a81548173ffffffffffffffffffffffffffffffffffffffff021916908373ffffffffffffffffffffffffffffffffffffffff1602179055507fbb703aa7f8a7bebc43ea190212c9ab3aeb3ea9de189188823994f06acd262fa381604051620001ec91906200071d565b60405180910390a150505050505050565b612b31806200073b83390190565b600081519050919050565b600082825260208201905092915050565b6000819050602082019050919050565b600073ffffffffffffffffffffffffffffffffffffffff82169050919050565b6000620002648262000237565b9050919050565b620002768162000257565b82525050565b60006200028a83836200026b565b60208301905092915050565b6000602082019050919050565b6000620002b0826200020b565b620002bc818562000216565b9350620002c98362000227565b8060005b8381101562000300578151620002e488826200027c565b9750620002f18362000296565b925050600181019050620002cd565b5085935050505092915050565b60006020820190508181036000830152620003298184620002a3565b905092915050565b6000604051905090565b600080fd5b600080fd5b600080fd5b600080fd5b6000601f19601f8301169050919050565b7f4e487b7100000000000000000000000000000000000000000000000000000000600052604160045260246000fd5b6200039a826200034f565b810181811067ffffffffffffffff82111715620003bc57620003bb62000360565b5b80604052505050565b6000620003d162000331565b9050620003df82826200038f565b919050565b600067ffffffffffffffff82111562000402576200040162000360565b5b6200040d826200034f565b9050602081019050919050565b82818337600083830152505050565b6000620004406200043a84620003e4565b620003c5565b9050828152602081018484840111156200045f576200045e6200034a565b5b6200046c8482856200041a565b509392505050565b600082601f8301126200048c576200048b62000345565b5b81356200049e84826020860162000429565b91505092915050565b620004b28162000257565b8114620004be57600080fd5b50565b600081359050620004d281620004a7565b92915050565b6000819050919050565b620004ed81620004d8565b8114620004f957600080fd5b50565b6000813590506200050d81620004e2565b92915050565b60008060008060008060c087890312156200053357620005326200033b565b5b600087013567ffffffffffffffff81111562000554576200055362000340565b5b6200056289828a0162000474565b965050602087013567ffffffffffffffff81111562000586576200058562000340565b5b6200059489828a0162000474565b9550506040620005a789828a01620004c1565b9450506060620005ba89828a01620004fc565b9350506080620005cd89828a01620004fc565b92505060a0620005e089828a01620004fc565b9150509295509295509295565b600081519050919050565b600082825260208201905092915050565b60005b83811015620006295780820151818401526020810190506200060c565b8381111562000639576000848401525b50505050565b60006200064c82620005ed565b620006588185620005f8565b93506200066a81856020860162000609565b62000675816200034f565b840191505092915050565b6200068b8162000257565b82525050565b6200069c81620004d8565b82525050565b600060c0820190508181036000830152620006be81896200063f565b90508181036020830152620006d481886200063f565b9050620006e5604083018762000680565b620006f4606083018662000691565b62000703608083018562000691565b6200071260a083018462000691565b979650505050505050565b600060208201905062000734600083018462000680565b9291505056fe60806040523480156200001157600080fd5b5060405162002b3138038062002b318339818101604052810190620000379190620003c0565b85600090805190602001906200004f929190620000d3565b50846001908051906020019062000068929190620000d3565b5083600260006101000a81548173ffffffffffffffffffffffffffffffffffffffff021916908373ffffffffffffffffffffffffffffffffffffffff1602179055508260038190555081600481905550806005819055506000600681905550505050505050620004fe565b828054620000e190620004c9565b90600052602060002090601f01602090048101928262000105576000855562000151565b82601f106200012057805160ff191683800117855562000151565b8280016001018555821562000151579182015b828111156200015057825182559160200191906001019062000133565b5b50905062000160919062000164565b5090565b5b808211156200017f57600081600090555060010162000165565b5090565b6000604051905090565b600080fd5b600080fd5b600080fd5b600080fd5b6000601f19601f8301169050919050565b7f4e487b7100000000000000000000000000000000000000000000000000000000600052604160045260246000fd5b620001ec82620001a1565b810181811067ffffffffffffffff821117156200020e576200020d620001b2565b5b80604052505050565b60006200022362000183565b9050620002318282620001e1565b919050565b600067ffffffffffffffff821115620002545762000253620001b2565b5b6200025f82620001a1565b9050602081019050919050565b60005b838110156200028c5780820151818401526020810190506200026f565b838111156200029c576000848401525b50505050565b6000620002b9620002b38462000236565b62000217565b905082815260208101848484011115620002d857620002d76200019c565b5b620002e58482856200026c565b509392505050565b600082601f83011262000305576200030462000197565b5b815162000317848260208601620002a2565b91505092915050565b600073ffffffffffffffffffffffffffffffffffffffff82169050919050565b60006200034d8262000320565b9050919050565b6200035f8162000340565b81146200036b57600080fd5b50565b6000815190506200037f8162000354565b92915050565b6000819050919050565b6200039a8162000385565b8114620003a657600080fd5b50565b600081519050620003ba816200038f565b92915050565b60008060008060008060c08789031215620003e057620003df6200018d565b5b600087015167ffffffffffffffff81111562000401576200040062000192565b5b6200040f89828a01620002ed565b965050602087015167ffffffffffffffff81111562000433576200043262000192565b5b6200044189828a01620002ed565b95505060406200045489828a016200036e565b94505060606200046789828a01620003a9565b93505060806200047a89828a01620003a9565b92505060a06200048d89828a01620003a9565b9150509295509295509295565b7f4e487b7100000000000000000000000000000000000000000000000000000000600052602260045260246000fd5b60006002820490506001821680620004e257607f821691505b602082108103620004f857620004f76200049a565b5b50919050565b612623806200050e6000396000f3fe6080604052600436106101095760003560e01c80638a92e5a011610095578063b9a4509811610064578063b9a4509814610353578063c426ab4a1461037e578063ce9ac84d146103bb578063d1585a6d146103e4578063d7bb99ba1461040f57610109565b80638a92e5a0146102955780638da5cb5b146102d2578063953b8fb8146102fd578063b2f5a54c1461032857610109565b80635958611e116100dc5780635958611e146101ac5780635ed57ea6146101d757806363cdab61146102005780637284e4161461022957806381d12c581461025457610109565b806304e346671461010e57806306fdde0314610139578063370158ea146101645780633ccfd60b14610195575b600080fd5b34801561011a57600080fd5b50610123610419565b6040516101309190611669565b60405180910390f35b34801561014557600080fd5b5061014e61041f565b60405161015b919061171d565b60405180910390f35b34801561017057600080fd5b506101796104ad565b60405161018c9796959493929190611780565b60405180910390f35b3480156101a157600080fd5b506101aa610617565b005b3480156101b857600080fd5b506101c161085b565b6040516101ce9190611669565b60405180910390f35b3480156101e357600080fd5b506101fe60048036038101906101f9919061183d565b610861565b005b34801561020c57600080fd5b506102276004803603810190610222919061183d565b610a8e565b005b34801561023557600080fd5b5061023e610d56565b60405161024b919061171d565b60405180910390f35b34801561026057600080fd5b5061027b6004803603810190610276919061183d565b610de4565b60405161028c9594939291906118a6565b60405180910390f35b3480156102a157600080fd5b506102bc60048036038101906102b7919061183d565b610ecf565b6040516102c99190611900565b60405180910390f35b3480156102de57600080fd5b506102e7610f3e565b6040516102f4919061191b565b60405180910390f35b34801561030957600080fd5b50610312610f64565b60405161031f9190611669565b60405180910390f35b34801561033457600080fd5b5061033d610f6a565b60405161034a9190611669565b60405180910390f35b34801561035f57600080fd5b50610368610f77565b6040516103759190611669565b60405180910390f35b34801561038a57600080fd5b506103a560048036038101906103a09190611962565b610f7d565b6040516103b29190611669565b60405180910390f35b3480156103c757600080fd5b506103e260048036038101906103dd9190611af0565b610f95565b005b3480156103f057600080fd5b506103f961116b565b6040516104069190611c1d565b60405180910390f35b6104176111f9565b005b60035481565b6000805461042c90611c6e565b80601f016020809104026020016040519081016040528092919081815260200182805461045890611c6e565b80156104a55780601f1061047a576101008083540402835291602001916104a5565b820191906000526020600020905b81548152906001019060200180831161048857829003601f168201915b505050505081565b6060806000806000806000806001600260009054906101000a900473ffffffffffffffffffffffffffffffffffffffff16600354600454600554478680546104f490611c6e565b80601f016020809104026020016040519081016040528092919081815260200182805461052090611c6e565b801561056d5780601f106105425761010080835404028352916020019161056d565b820191906000526020600020905b81548152906001019060200180831161055057829003601f168201915b5050505050965085805461058090611c6e565b80601f01602080910402602001604051908101604052809291908181526020018280546105ac90611c6e565b80156105f95780601f106105ce576101008083540402835291602001916105f9565b820191906000526020600020905b8154815290600101906020018083116105dc57829003601f168201915b50505050509550965096509650965096509650965090919293949596565b600454471061065b576040517f08c379a000000000000000000000000000000000000000000000000000000000815260040161065290611ceb565b60405180910390fd5b600554421161069f576040517f08c379a000000000000000000000000000000000000000000000000000000000815260040161069690611d57565b60405180910390fd5b6000600960003373ffffffffffffffffffffffffffffffffffffffff1673ffffffffffffffffffffffffffffffffffffffff1681526020019081526020016000205490506000600960003373ffffffffffffffffffffffffffffffffffffffff1673ffffffffffffffffffffffffffffffffffffffff1681526020019081526020016000208190555060003373ffffffffffffffffffffffffffffffffffffffff168260405161074e90611da8565b60006040518083038185875af1925050503d806000811461078b576040519150601f19603f3d011682016040523d82523d6000602084013e610790565b606091505b50509050806107d4576040517f08c379a00000000000000000000000000000000000000000000000000000000081526004016107cb90611e09565b60405180910390fd5b6107dd336113c5565b61081c576040517f08c379a000000000000000000000000000000000000000000000000000000000815260040161081390611e75565b60405180910390fd5b7f56c54ba9bd38d8fd62012e42c7ee564519b09763c426d331b3661b537ead19b233833060405161084f93929190611e95565b60405180910390a15050565b60055481565b60006007600083815260200190815260200160002090506000600960003373ffffffffffffffffffffffffffffffffffffffff1673ffffffffffffffffffffffffffffffffffffffff16815260200190815260200160002054116108fa576040517f08c379a00000000000000000000000000000000000000000000000000000000081526004016108f190611f18565b60405180910390fd5b8060040160003373ffffffffffffffffffffffffffffffffffffffff1673ffffffffffffffffffffffffffffffffffffffff16815260200190815260200160002060009054906101000a900460ff1615610989576040517f08c379a000000000000000000000000000000000000000000000000000000000815260040161098090611f84565b60405180910390fd5b8060020160149054906101000a900460ff16156109db576040517f08c379a00000000000000000000000000000000000000000000000000000000081526004016109d290612016565b60405180910390fd5b60018160040160003373ffffffffffffffffffffffffffffffffffffffff1673ffffffffffffffffffffffffffffffffffffffff16815260200190815260200160002060006101000a81548160ff021916908315150217905550806003016000815480929190610a4a90612065565b91905055507fbd0c6d079dd0d4b2c90a91c167efa5aab19f9cc7fb73a6e50f8c6ff2b124386b823330604051610a82939291906120ad565b60405180910390a15050565b600260009054906101000a900473ffffffffffffffffffffffffffffffffffffffff1673ffffffffffffffffffffffffffffffffffffffff163373ffffffffffffffffffffffffffffffffffffffff1614610b1e576040517f08c379a0000000000000000000000000000000000000000000000000000000008152600401610b1590612130565b60405180910390fd5b60006007600083815260200190815260200160002090506002600880549050610b47919061217f565b816003015411610b8c576040517f08c379a0000000000000000000000000000000000000000000000000000000008152600401610b83906121fc565b60405180910390fd5b8060020160149054906101000a900460ff1615610bde576040517f08c379a0000000000000000000000000000000000000000000000000000000008152600401610bd590612268565b60405180910390fd5b4781600001541115610c25576040517f08c379a0000000000000000000000000000000000000000000000000000000008152600401610c1c906122d4565b60405180910390fd5b60008160020160009054906101000a900473ffffffffffffffffffffffffffffffffffffffff1673ffffffffffffffffffffffffffffffffffffffff168260000154604051610c7390611da8565b60006040518083038185875af1925050503d8060008114610cb0576040519150601f19603f3d011682016040523d82523d6000602084013e610cb5565b606091505b5050905080610cf9576040517f08c379a0000000000000000000000000000000000000000000000000000000008152600401610cf090611e09565b60405180910390fd5b60018260020160146101000a81548160ff0219169083151502179055507fc2b3ef54f49cdc08b1f9e69cccf290fddd29746097687e123537a835f3460ca6834730604051610d49939291906122f4565b60405180910390a1505050565b60018054610d6390611c6e565b80601f0160208091040260200160405190810160405280929190818152602001828054610d8f90611c6e565b8015610ddc5780601f10610db157610100808354040283529160200191610ddc565b820191906000526020600020905b815481529060010190602001808311610dbf57829003601f168201915b505050505081565b6007602052806000526040600020600091509050806000015490806001018054610e0d90611c6e565b80601f0160208091040260200160405190810160405280929190818152602001828054610e3990611c6e565b8015610e865780601f10610e5b57610100808354040283529160200191610e86565b820191906000526020600020905b815481529060010190602001808311610e6957829003601f168201915b5050505050908060020160009054906101000a900473ffffffffffffffffffffffffffffffffffffffff16908060020160149054906101000a900460ff16908060030154905085565b6000806007600084815260200190815260200160002090508060040160003373ffffffffffffffffffffffffffffffffffffffff1673ffffffffffffffffffffffffffffffffffffffff16815260200190815260200160002060009054906101000a900460ff16915050919050565b600260009054906101000a900473ffffffffffffffffffffffffffffffffffffffff1681565b60045481565b6000600880549050905090565b60065481565b60096020528060005260406000206000915090505481565b600260009054906101000a900473ffffffffffffffffffffffffffffffffffffffff1673ffffffffffffffffffffffffffffffffffffffff163373ffffffffffffffffffffffffffffffffffffffff1614611025576040517f08c379a000000000000000000000000000000000000000000000000000000000815260040161101c90612130565b60405180910390fd5b60045447101561106a576040517f08c379a000000000000000000000000000000000000000000000000000000000815260040161106190612377565b60405180910390fd5b6000600760006006600081548092919061108390612065565b9190505581526020019081526020016000209050838160000181905550828160010190805190602001906110b89291906115ad565b50818160020160006101000a81548173ffffffffffffffffffffffffffffffffffffffff021916908373ffffffffffffffffffffffffffffffffffffffff16021790555060008160020160146101000a81548160ff021916908315150217905550600081600301819055507f16b2a5a8e687468ae970340b39ccf397708b54cbbf52720250a5fbe86bfb77238484846000803060405161115d96959493929190612431565b60405180910390a150505050565b606060088054806020026020016040519081016040528092919081815260200182805480156111ef57602002820191906000526020600020905b8160009054906101000a900473ffffffffffffffffffffffffffffffffffffffff1673ffffffffffffffffffffffffffffffffffffffff16815260200190600101908083116111a5575b5050505050905090565b60035434101561123e576040517f08c379a0000000000000000000000000000000000000000000000000000000008152600401611235906124e5565b60405180910390fd5b6000600960003373ffffffffffffffffffffffffffffffffffffffff1673ffffffffffffffffffffffffffffffffffffffff1681526020019081526020016000205403611331576008339080600181540180825580915050600190039060005260206000200160009091909190916101000a81548173ffffffffffffffffffffffffffffffffffffffff021916908373ffffffffffffffffffffffffffffffffffffffff16021790555034600960003373ffffffffffffffffffffffffffffffffffffffff1673ffffffffffffffffffffffffffffffffffffffff16815260200190815260200160002081905550611388565b34600960003373ffffffffffffffffffffffffffffffffffffffff1673ffffffffffffffffffffffffffffffffffffffff16815260200190815260200160002060008282546113809190612505565b925050819055505b7f848d298176c66ffe9f09873369ea879f536e6088040405ef12e550c0949f17e23334306040516113bb93929190611e95565b60405180910390a1565b60008060009050600080600090505b600880549050811015611471578473ffffffffffffffffffffffffffffffffffffffff166008828154811061140c5761140b61255b565b5b9060005260206000200160009054906101000a900473ffffffffffffffffffffffffffffffffffffffff1673ffffffffffffffffffffffffffffffffffffffff160361145e5780915060019250611471565b808061146990612065565b9150506113d4565b50816114815781925050506115a8565b60008190505b6001600880549050611499919061258a565b81101561155a5760086001826114af9190612505565b815481106114c0576114bf61255b565b5b9060005260206000200160009054906101000a900473ffffffffffffffffffffffffffffffffffffffff16600882815481106114ff576114fe61255b565b5b9060005260206000200160006101000a81548173ffffffffffffffffffffffffffffffffffffffff021916908373ffffffffffffffffffffffffffffffffffffffff160217905550808061155290612065565b915050611487565b50600880548061156d5761156c6125be565b5b6001900381819060005260206000200160006101000a81549073ffffffffffffffffffffffffffffffffffffffff0219169055905581925050505b919050565b8280546115b990611c6e565b90600052602060002090601f0160209004810192826115db5760008555611622565b82601f106115f457805160ff1916838001178555611622565b82800160010185558215611622579182015b82811115611621578251825591602001919060010190611606565b5b50905061162f9190611633565b5090565b5b8082111561164c576000816000905550600101611634565b5090565b6000819050919050565b61166381611650565b82525050565b600060208201905061167e600083018461165a565b92915050565b600081519050919050565b600082825260208201905092915050565b60005b838110156116be5780820151818401526020810190506116a3565b838111156116cd576000848401525b50505050565b6000601f19601f8301169050919050565b60006116ef82611684565b6116f9818561168f565b93506117098185602086016116a0565b611712816116d3565b840191505092915050565b6000602082019050818103600083015261173781846116e4565b905092915050565b600073ffffffffffffffffffffffffffffffffffffffff82169050919050565b600061176a8261173f565b9050919050565b61177a8161175f565b82525050565b600060e082019050818103600083015261179a818a6116e4565b905081810360208301526117ae81896116e4565b90506117bd6040830188611771565b6117ca606083018761165a565b6117d7608083018661165a565b6117e460a083018561165a565b6117f160c083018461165a565b98975050505050505050565b6000604051905090565b600080fd5b600080fd5b61181a81611650565b811461182557600080fd5b50565b60008135905061183781611811565b92915050565b60006020828403121561185357611852611807565b5b600061186184828501611828565b91505092915050565b60006118758261173f565b9050919050565b6118858161186a565b82525050565b60008115159050919050565b6118a08161188b565b82525050565b600060a0820190506118bb600083018861165a565b81810360208301526118cd81876116e4565b90506118dc604083018661187c565b6118e96060830185611897565b6118f6608083018461165a565b9695505050505050565b60006020820190506119156000830184611897565b92915050565b60006020820190506119306000830184611771565b92915050565b61193f8161175f565b811461194a57600080fd5b50565b60008135905061195c81611936565b92915050565b60006020828403121561197857611977611807565b5b60006119868482850161194d565b91505092915050565b600080fd5b600080fd5b7f4e487b7100000000000000000000000000000000000000000000000000000000600052604160045260246000fd5b6119d1826116d3565b810181811067ffffffffffffffff821117156119f0576119ef611999565b5b80604052505050565b6000611a036117fd565b9050611a0f82826119c8565b919050565b600067ffffffffffffffff821115611a2f57611a2e611999565b5b611a38826116d3565b9050602081019050919050565b82818337600083830152505050565b6000611a67611a6284611a14565b6119f9565b905082815260208101848484011115611a8357611a82611994565b5b611a8e848285611a45565b509392505050565b600082601f830112611aab57611aaa61198f565b5b8135611abb848260208601611a54565b91505092915050565b611acd8161186a565b8114611ad857600080fd5b50565b600081359050611aea81611ac4565b92915050565b600080600060608486031215611b0957611b08611807565b5b6000611b1786828701611828565b935050602084013567ffffffffffffffff811115611b3857611b3761180c565b5b611b4486828701611a96565b9250506040611b5586828701611adb565b9150509250925092565b600081519050919050565b600082825260208201905092915050565b6000819050602082019050919050565b611b948161175f565b82525050565b6000611ba68383611b8b565b60208301905092915050565b6000602082019050919050565b6000611bca82611b5f565b611bd48185611b6a565b9350611bdf83611b7b565b8060005b83811015611c10578151611bf78882611b9a565b9750611c0283611bb2565b925050600181019050611be3565b5085935050505092915050565b60006020820190508181036000830152611c378184611bbf565b905092915050565b7f4e487b7100000000000000000000000000000000000000000000000000000000600052602260045260246000fd5b60006002820490506001821680611c8657607f821691505b602082108103611c9957611c98611c3f565b5b50919050565b7f476f616c20686173206265656e20616368696576656400000000000000000000600082015250565b6000611cd560168361168f565b9150611ce082611c9f565b602082019050919050565b60006020820190508181036000830152611d0481611cc8565b9050919050565b7f4e6f74206d65742066696e697368696e672074696d6500000000000000000000600082015250565b6000611d4160168361168f565b9150611d4c82611d0b565b602082019050919050565b60006020820190508181036000830152611d7081611d34565b9050919050565b600081905092915050565b50565b6000611d92600083611d77565b9150611d9d82611d82565b600082019050919050565b6000611db382611d85565b9150819050919050565b7f5472616e73666572206661696c65642e00000000000000000000000000000000600082015250565b6000611df360108361168f565b9150611dfe82611dbd565b602082019050919050565b60006020820190508181036000830152611e2281611de6565b9050919050565b7f4469746368696e67206f6666207468652061646472657373206661696c656400600082015250565b6000611e5f601f8361168f565b9150611e6a82611e29565b602082019050919050565b60006020820190508181036000830152611e8e81611e52565b9050919050565b6000606082019050611eaa6000830186611771565b611eb7602083018561165a565b611ec46040830184611771565b949350505050565b7f4e6f7420616e20696e766573746f720000000000000000000000000000000000600082015250565b6000611f02600f8361168f565b9150611f0d82611ecc565b602082019050919050565b60006020820190508181036000830152611f3181611ef5565b9050919050565b7f48617320616c726561647920676976656e2063726564697420666f7200000000600082015250565b6000611f6e601c8361168f565b9150611f7982611f38565b602082019050919050565b60006020820190508181036000830152611f9d81611f61565b9050919050565b7f526571756573742068617320616c7265616479206265656e206163637265646960008201527f7465640000000000000000000000000000000000000000000000000000000000602082015250565b600061200060238361168f565b915061200b82611fa4565b604082019050919050565b6000602082019050818103600083015261202f81611ff3565b9050919050565b7f4e487b7100000000000000000000000000000000000000000000000000000000600052601160045260246000fd5b600061207082611650565b91507fffffffffffffffffffffffffffffffffffffffffffffffffffffffffffffffff82036120a2576120a1612036565b5b600182019050919050565b60006060820190506120c2600083018661165a565b6120cf6020830185611771565b6120dc6040830184611771565b949350505050565b7f53656e646572206e6f7420617574686f72697a65642e00000000000000000000600082015250565b600061211a60168361168f565b9150612125826120e4565b602082019050919050565b600060208201905081810360008301526121498161210d565b9050919050565b7f4e487b7100000000000000000000000000000000000000000000000000000000600052601260045260246000fd5b600061218a82611650565b915061219583611650565b9250826121a5576121a4612150565b5b828204905092915050565b7f4e6f7420656e6f75676820766f74657300000000000000000000000000000000600082015250565b60006121e660108361168f565b91506121f1826121b0565b602082019050919050565b60006020820190508181036000830152612215816121d9565b9050919050565b7f486173206265656e20646f6e6500000000000000000000000000000000000000600082015250565b6000612252600d8361168f565b915061225d8261221c565b602082019050919050565b6000602082019050818103600083015261228181612245565b9050919050565b7f496e76616c696420616d6f756e74000000000000000000000000000000000000600082015250565b60006122be600e8361168f565b91506122c982612288565b602082019050919050565b600060208201905081810360008301526122ed816122b1565b9050919050565b6000606082019050612309600083018661165a565b612316602083018561165a565b6123236040830184611771565b949350505050565b7f4e6f74206d657420676f616c207965742e000000000000000000000000000000600082015250565b600061236160118361168f565b915061236c8261232b565b602082019050919050565b6000602082019050818103600083015261239081612354565b9050919050565b6000819050919050565b60006123bc6123b76123b28461173f565b612397565b61173f565b9050919050565b60006123ce826123a1565b9050919050565b60006123e0826123c3565b9050919050565b6123f0816123d5565b82525050565b6000819050919050565b600061241b612416612411846123f6565b612397565b611650565b9050919050565b61242b81612400565b82525050565b600060c082019050612446600083018961165a565b818103602083015261245881886116e4565b905061246760408301876123e7565b6124746060830186611897565b6124816080830185612422565b61248e60a0830184611771565b979650505050505050565b7f496e73756666696369656e7420616d6f756e7400000000000000000000000000600082015250565b60006124cf60138361168f565b91506124da82612499565b602082019050919050565b600060208201905081810360008301526124fe816124c2565b9050919050565b600061251082611650565b915061251b83611650565b9250827fffffffffffffffffffffffffffffffffffffffffffffffffffffffffffffffff038211156125505761254f612036565b5b828201905092915050565b7f4e487b7100000000000000000000000000000000000000000000000000000000600052603260045260246000fd5b600061259582611650565b91506125a083611650565b9250828210156125b3576125b2612036565b5b828203905092915050565b7f4e487b7100000000000000000000000000000000000000000000000000000000600052603160045260246000fdfea26469706673582212202b5f782896fc4eea725d14d3bbddc895a8c5709fc58c3f0849e93dcf1259fe6264736f6c634300080e0033a2646970667358221220b34f2730535757412eab4633355109a4fae6e16fd145f60e40b10a5216a61f4364736f6c634300080e0033",
  "immutableReferences": {},
  "source": "// SPDX-License-Identifier: MIT\r\npragma solidity >=0.8.14;\r\nimport \"./Project.sol\";\r\n\r\ncontract Manager {\r\n    address[] projects;\r\n\r\n    event CreateProject(address projectAddress);\r\n\r\n    function createProject(\r\n        string memory name,\r\n        string memory des,\r\n        address creator,\r\n        uint256 min,\r\n        uint256 target,\r\n        uint256 finishTime\r\n    ) public {\r\n        Project newProject = new Project(\r\n            name,\r\n            des,\r\n            creator,\r\n            min,\r\n            target,\r\n            finishTime\r\n        );\r\n\r\n        projects.push(address(newProject));\r\n        emit CreateProject(address(newProject));\r\n    }\r\n\r\n    function getProjects() external view returns (address[] memory) {\r\n        return projects;\r\n    }\r\n}\r\n",
  "sourcePath": "C:\\work\\crowdfunding\\contracts\\Manager.sol",
  "compiler": {
    "name": "solc",
    "version": "0.8.14+commit.80d49f37.Emscripten.clang"
  },
  "schemaVersion": "3.4.7",
  "updatedAt": "2022-06-20T04:59:50.786Z",
  "networkType": "ethereum",
  "devdoc": {
    "kind": "dev",
    "methods": {},
    "version": 1
  },
  "userdoc": {
    "kind": "user",
    "methods": {},
    "version": 1
  }
}