{
  "contractName": "Manager",
  "abi": [
    {
      "inputs": [
        {
          "internalType": "string",
          "name": "name",
          "type": "string"
        },
        {
          "internalType": "string",
          "name": "des",
          "type": "string"
        },
        {
          "internalType": "address",
          "name": "creator",
          "type": "address"
        },
        {
          "internalType": "uint256",
          "name": "min",
          "type": "uint256"
        },
        {
          "internalType": "uint256",
          "name": "target",
          "type": "uint256"
        },
        {
          "internalType": "uint256",
          "name": "finishTime",
          "type": "uint256"
        }
      ],
      "name": "createProject",
      "outputs": [],
      "stateMutability": "nonpayable",
      "type": "function"
    },
    {
      "inputs": [],
      "name": "getProjects",
      "outputs": [
        {
          "internalType": "address[]",
          "name": "",
          "type": "address[]"
        }
      ],
      "stateMutability": "view",
      "type": "function",
      "constant": true
    }
  ],
  "bytecode": "0x608060405234801561001057600080fd5b50611976806100206000396000f3fe60806040523480156200001157600080fd5b50600436106200003a5760003560e01c8063dcc60128146200003f578063df2970e11462000061575b600080fd5b6200004962000081565b604051620000589190620002d4565b60405180910390f35b6200007f6004803603810190620000799190620004da565b62000111565b005b606060008054806020026020016040519081016040528092919081815260200182805480156200010757602002820191906000526020600020905b8160009054906101000a900473ffffffffffffffffffffffffffffffffffffffff1673ffffffffffffffffffffffffffffffffffffffff1681526020019060010190808311620000bc575b5050505050905090565b60008686868686866040516200012790620001c4565b620001389695949392919062000669565b604051809103906000f08015801562000155573d6000803e3d6000fd5b5090506000819080600181540180825580915050600190039060005260206000200160009091909190916101000a81548173ffffffffffffffffffffffffffffffffffffffff021916908373ffffffffffffffffffffffffffffffffffffffff16021790555050505050505050565b61125c80620006e583390190565b600081519050919050565b600082825260208201905092915050565b6000819050602082019050919050565b600073ffffffffffffffffffffffffffffffffffffffff82169050919050565b60006200022b82620001fe565b9050919050565b6200023d816200021e565b82525050565b600062000251838362000232565b60208301905092915050565b6000602082019050919050565b60006200027782620001d2565b620002838185620001dd565b93506200029083620001ee565b8060005b83811015620002c7578151620002ab888262000243565b9750620002b8836200025d565b92505060018101905062000294565b5085935050505092915050565b60006020820190508181036000830152620002f081846200026a565b905092915050565b6000604051905090565b600080fd5b600080fd5b600080fd5b600080fd5b6000601f19601f8301169050919050565b7f4e487b7100000000000000000000000000000000000000000000000000000000600052604160045260246000fd5b620003618262000316565b810181811067ffffffffffffffff8211171562000383576200038262000327565b5b80604052505050565b600062000398620002f8565b9050620003a6828262000356565b919050565b600067ffffffffffffffff821115620003c957620003c862000327565b5b620003d48262000316565b9050602081019050919050565b82818337600083830152505050565b6000620004076200040184620003ab565b6200038c565b90508281526020810184848401111562000426576200042562000311565b5b62000433848285620003e1565b509392505050565b600082601f8301126200045357620004526200030c565b5b813562000465848260208601620003f0565b91505092915050565b62000479816200021e565b81146200048557600080fd5b50565b60008135905062000499816200046e565b92915050565b6000819050919050565b620004b4816200049f565b8114620004c057600080fd5b50565b600081359050620004d481620004a9565b92915050565b60008060008060008060c08789031215620004fa57620004f962000302565b5b600087013567ffffffffffffffff8111156200051b576200051a62000307565b5b6200052989828a016200043b565b965050602087013567ffffffffffffffff8111156200054d576200054c62000307565b5b6200055b89828a016200043b565b95505060406200056e89828a0162000488565b94505060606200058189828a01620004c3565b93505060806200059489828a01620004c3565b92505060a0620005a789828a01620004c3565b9150509295509295509295565b600081519050919050565b600082825260208201905092915050565b60005b83811015620005f0578082015181840152602081019050620005d3565b8381111562000600576000848401525b50505050565b60006200061382620005b4565b6200061f8185620005bf565b935062000631818560208601620005d0565b6200063c8162000316565b840191505092915050565b62000652816200021e565b82525050565b62000663816200049f565b82525050565b600060c082019050818103600083015262000685818962000606565b905081810360208301526200069b818862000606565b9050620006ac604083018762000647565b620006bb606083018662000658565b620006ca608083018562000658565b620006d960a083018462000658565b97965050505050505056fe60806040523480156200001157600080fd5b506040516200125c3803806200125c8339818101604052810190620000379190620003b8565b85600090805190602001906200004f929190620000cb565b50846001908051906020019062000068929190620000cb565b5083600260006101000a81548173ffffffffffffffffffffffffffffffffffffffff021916908373ffffffffffffffffffffffffffffffffffffffff160217905550826003819055508160048190555080600581905550505050505050620004f6565b828054620000d990620004c1565b90600052602060002090601f016020900481019282620000fd576000855562000149565b82601f106200011857805160ff191683800117855562000149565b8280016001018555821562000149579182015b82811115620001485782518255916020019190600101906200012b565b5b5090506200015891906200015c565b5090565b5b80821115620001775760008160009055506001016200015d565b5090565b6000604051905090565b600080fd5b600080fd5b600080fd5b600080fd5b6000601f19601f8301169050919050565b7f4e487b7100000000000000000000000000000000000000000000000000000000600052604160045260246000fd5b620001e48262000199565b810181811067ffffffffffffffff82111715620002065762000205620001aa565b5b80604052505050565b60006200021b6200017b565b9050620002298282620001d9565b919050565b600067ffffffffffffffff8211156200024c576200024b620001aa565b5b620002578262000199565b9050602081019050919050565b60005b838110156200028457808201518184015260208101905062000267565b8381111562000294576000848401525b50505050565b6000620002b1620002ab846200022e565b6200020f565b905082815260208101848484011115620002d057620002cf62000194565b5b620002dd84828562000264565b509392505050565b600082601f830112620002fd57620002fc6200018f565b5b81516200030f8482602086016200029a565b91505092915050565b600073ffffffffffffffffffffffffffffffffffffffff82169050919050565b6000620003458262000318565b9050919050565b620003578162000338565b81146200036357600080fd5b50565b60008151905062000377816200034c565b92915050565b6000819050919050565b62000392816200037d565b81146200039e57600080fd5b50565b600081519050620003b28162000387565b92915050565b60008060008060008060c08789031215620003d857620003d762000185565b5b600087015167ffffffffffffffff811115620003f957620003f86200018a565b5b6200040789828a01620002e5565b965050602087015167ffffffffffffffff8111156200042b576200042a6200018a565b5b6200043989828a01620002e5565b95505060406200044c89828a0162000366565b94505060606200045f89828a01620003a1565b93505060806200047289828a01620003a1565b92505060a06200048589828a01620003a1565b9150509295509295509295565b7f4e487b7100000000000000000000000000000000000000000000000000000000600052602260045260246000fd5b60006002820490506001821680620004da57607f821691505b602082108103620004f057620004ef62000492565b5b50919050565b610d5680620005066000396000f3fe6080604052600436106100a75760003560e01c80638da5cb5b116100645780638da5cb5b146101b3578063953b8fb8146101de578063b2f5a54c14610209578063c426ab4a14610234578063d1585a6d14610271578063d7bb99ba1461029c576100a7565b806304e34667146100ac57806306fdde03146100d7578063370158ea146101025780635958611e1461013257806361e198801461015d5780637284e41614610188575b600080fd5b3480156100b857600080fd5b506100c16102a6565b6040516100ce9190610879565b60405180910390f35b3480156100e357600080fd5b506100ec6102ac565b6040516100f9919061092d565b60405180910390f35b34801561010e57600080fd5b5061011761033a565b60405161012996959493929190610990565b60405180910390f35b34801561013e57600080fd5b5061014761049f565b6040516101549190610879565b60405180910390f35b34801561016957600080fd5b506101726104a5565b60405161017f9190610879565b60405180910390f35b34801561019457600080fd5b5061019d610562565b6040516101aa919061092d565b60405180910390f35b3480156101bf57600080fd5b506101c86105f0565b6040516101d591906109ff565b60405180910390f35b3480156101ea57600080fd5b506101f3610616565b6040516102009190610879565b60405180910390f35b34801561021557600080fd5b5061021e61061c565b60405161022b9190610879565b60405180910390f35b34801561024057600080fd5b5061025b60048036038101906102569190610a4b565b610629565b6040516102689190610879565b60405180910390f35b34801561027d57600080fd5b50610286610641565b6040516102939190610b36565b60405180910390f35b6102a46106cf565b005b60035481565b600080546102b990610b87565b80601f01602080910402602001604051908101604052809291908181526020018280546102e590610b87565b80156103325780601f1061030757610100808354040283529160200191610332565b820191906000526020600020905b81548152906001019060200180831161031557829003601f168201915b505050505081565b60608060008060008060006001600260009054906101000a900473ffffffffffffffffffffffffffffffffffffffff1660035460045460055485805461037f90610b87565b80601f01602080910402602001604051908101604052809291908181526020018280546103ab90610b87565b80156103f85780601f106103cd576101008083540402835291602001916103f8565b820191906000526020600020905b8154815290600101906020018083116103db57829003601f168201915b5050505050955084805461040b90610b87565b80601f016020809104026020016040519081016040528092919081815260200182805461043790610b87565b80156104845780601f1061045957610100808354040283529160200191610484565b820191906000526020600020905b81548152906001019060200180831161046757829003601f168201915b50505050509450955095509550955095509550909192939495565b60055481565b6000806000905060005b60068054905081101561055a5760076000600683815481106104d4576104d3610bb8565b5b9060005260206000200160009054906101000a900473ffffffffffffffffffffffffffffffffffffffff1673ffffffffffffffffffffffffffffffffffffffff1673ffffffffffffffffffffffffffffffffffffffff16815260200190815260200160002054826105459190610c16565b9150808061055290610c6c565b9150506104af565b508091505090565b6001805461056f90610b87565b80601f016020809104026020016040519081016040528092919081815260200182805461059b90610b87565b80156105e85780601f106105bd576101008083540402835291602001916105e8565b820191906000526020600020905b8154815290600101906020018083116105cb57829003601f168201915b505050505081565b600260009054906101000a900473ffffffffffffffffffffffffffffffffffffffff1681565b60045481565b6000600680549050905090565b60076020528060005260406000206000915090505481565b606060068054806020026020016040519081016040528092919081815260200182805480156106c557602002820191906000526020600020905b8160009054906101000a900473ffffffffffffffffffffffffffffffffffffffff1673ffffffffffffffffffffffffffffffffffffffff168152602001906001019080831161067b575b5050505050905090565b600354341015610714576040517f08c379a000000000000000000000000000000000000000000000000000000000815260040161070b90610d00565b60405180910390fd5b6000600760003373ffffffffffffffffffffffffffffffffffffffff1673ffffffffffffffffffffffffffffffffffffffff1681526020019081526020016000205403610807576006339080600181540180825580915050600190039060005260206000200160009091909190916101000a81548173ffffffffffffffffffffffffffffffffffffffff021916908373ffffffffffffffffffffffffffffffffffffffff16021790555034600760003373ffffffffffffffffffffffffffffffffffffffff1673ffffffffffffffffffffffffffffffffffffffff1681526020019081526020016000208190555061085e565b34600760003373ffffffffffffffffffffffffffffffffffffffff1673ffffffffffffffffffffffffffffffffffffffff16815260200190815260200160002060008282546108569190610c16565b925050819055505b565b6000819050919050565b61087381610860565b82525050565b600060208201905061088e600083018461086a565b92915050565b600081519050919050565b600082825260208201905092915050565b60005b838110156108ce5780820151818401526020810190506108b3565b838111156108dd576000848401525b50505050565b6000601f19601f8301169050919050565b60006108ff82610894565b610909818561089f565b93506109198185602086016108b0565b610922816108e3565b840191505092915050565b6000602082019050818103600083015261094781846108f4565b905092915050565b600073ffffffffffffffffffffffffffffffffffffffff82169050919050565b600061097a8261094f565b9050919050565b61098a8161096f565b82525050565b600060c08201905081810360008301526109aa81896108f4565b905081810360208301526109be81886108f4565b90506109cd6040830187610981565b6109da606083018661086a565b6109e7608083018561086a565b6109f460a083018461086a565b979650505050505050565b6000602082019050610a146000830184610981565b92915050565b600080fd5b610a288161096f565b8114610a3357600080fd5b50565b600081359050610a4581610a1f565b92915050565b600060208284031215610a6157610a60610a1a565b5b6000610a6f84828501610a36565b91505092915050565b600081519050919050565b600082825260208201905092915050565b6000819050602082019050919050565b610aad8161096f565b82525050565b6000610abf8383610aa4565b60208301905092915050565b6000602082019050919050565b6000610ae382610a78565b610aed8185610a83565b9350610af883610a94565b8060005b83811015610b29578151610b108882610ab3565b9750610b1b83610acb565b925050600181019050610afc565b5085935050505092915050565b60006020820190508181036000830152610b508184610ad8565b905092915050565b7f4e487b7100000000000000000000000000000000000000000000000000000000600052602260045260246000fd5b60006002820490506001821680610b9f57607f821691505b602082108103610bb257610bb1610b58565b5b50919050565b7f4e487b7100000000000000000000000000000000000000000000000000000000600052603260045260246000fd5b7f4e487b7100000000000000000000000000000000000000000000000000000000600052601160045260246000fd5b6000610c2182610860565b9150610c2c83610860565b9250827fffffffffffffffffffffffffffffffffffffffffffffffffffffffffffffffff03821115610c6157610c60610be7565b5b828201905092915050565b6000610c7782610860565b91507fffffffffffffffffffffffffffffffffffffffffffffffffffffffffffffffff8203610ca957610ca8610be7565b5b600182019050919050565b7f496e73756666696369656e7420616d6f756e7400000000000000000000000000600082015250565b6000610cea60138361089f565b9150610cf582610cb4565b602082019050919050565b60006020820190508181036000830152610d1981610cdd565b905091905056fea2646970667358221220ccb13b420dffe23143f745abf7b2897000ad65232da2b6d70aae36e4b0d9418864736f6c634300080e0033a26469706673582212203ec6c8eec2d0cad98d98885dd452fd46ad0db1088d35a17e2965eaf13b1c36a864736f6c634300080e0033",
  "immutableReferences": {},
  "source": "// SPDX-License-Identifier: MIT\r\npragma solidity >=0.8.14;\r\nimport \"./Project.sol\";\r\n\r\ncontract Manager {\r\n    address[] projects;\r\n\r\n    function createProject(\r\n        string memory name,\r\n        string memory des,\r\n        address creator,\r\n        uint256 min,\r\n        uint256 target,\r\n        uint256 finishTime\r\n    ) public {\r\n        Project newProject = new Project(\r\n            name,\r\n            des,\r\n            creator,\r\n            min,\r\n            target,\r\n            finishTime\r\n        );\r\n\r\n        projects.push(address(newProject));\r\n    }\r\n\r\n    function getProjects() external view returns(address[] memory) {\r\n        return projects;\r\n    }\r\n}\r\n",
  "sourcePath": "C:\\work\\crowdfunding\\contracts\\Manager.sol",
  "compiler": {
    "name": "solc",
    "version": "0.8.14+commit.80d49f37.Emscripten.clang"
  },
  "schemaVersion": "3.4.7",
  "updatedAt": "2022-06-15T12:17:24.814Z",
  "networkType": "ethereum",
  "devdoc": {
    "kind": "dev",
    "methods": {},
    "version": 1
  },
  "userdoc": {
    "kind": "user",
    "methods": {},
    "version": 1
  }
}