{
  "contractName": "Manager",
  "abi": [
    {
      "inputs": [
        {
          "internalType": "string",
          "name": "name",
          "type": "string"
        },
        {
          "internalType": "string",
          "name": "des",
          "type": "string"
        },
        {
          "internalType": "address",
          "name": "creator",
          "type": "address"
        },
        {
          "internalType": "uint256",
          "name": "min",
          "type": "uint256"
        },
        {
          "internalType": "uint256",
          "name": "target",
          "type": "uint256"
        },
        {
          "internalType": "uint256",
          "name": "finishTime",
          "type": "uint256"
        }
      ],
      "name": "createProject",
      "outputs": [],
      "stateMutability": "nonpayable",
      "type": "function"
    }
  ],
  "bytecode": "0x608060405234801561001057600080fd5b506113d3806100206000396000f3fe60806040523480156200001157600080fd5b50600436106200002e5760003560e01c8063df2970e11462000033575b600080fd5b6200005160048036038101906200004b91906200032a565b62000053565b005b6000868686868686604051620000699062000106565b6200007a96959493929190620004b9565b604051809103906000f08015801562000097573d6000803e3d6000fd5b5090506000819080600181540180825580915050600190039060005260206000200160009091909190916101000a81548173ffffffffffffffffffffffffffffffffffffffff021916908373ffffffffffffffffffffffffffffffffffffffff16021790555050505050505050565b610e69806200053583390190565b6000604051905090565b600080fd5b600080fd5b600080fd5b600080fd5b6000601f19601f8301169050919050565b7f4e487b7100000000000000000000000000000000000000000000000000000000600052604160045260246000fd5b6200017d8262000132565b810181811067ffffffffffffffff821117156200019f576200019e62000143565b5b80604052505050565b6000620001b462000114565b9050620001c2828262000172565b919050565b600067ffffffffffffffff821115620001e557620001e462000143565b5b620001f08262000132565b9050602081019050919050565b82818337600083830152505050565b6000620002236200021d84620001c7565b620001a8565b9050828152602081018484840111156200024257620002416200012d565b5b6200024f848285620001fd565b509392505050565b600082601f8301126200026f576200026e62000128565b5b8135620002818482602086016200020c565b91505092915050565b600073ffffffffffffffffffffffffffffffffffffffff82169050919050565b6000620002b7826200028a565b9050919050565b620002c981620002aa565b8114620002d557600080fd5b50565b600081359050620002e981620002be565b92915050565b6000819050919050565b6200030481620002ef565b81146200031057600080fd5b50565b6000813590506200032481620002f9565b92915050565b60008060008060008060c087890312156200034a57620003496200011e565b5b600087013567ffffffffffffffff8111156200036b576200036a62000123565b5b6200037989828a0162000257565b965050602087013567ffffffffffffffff8111156200039d576200039c62000123565b5b620003ab89828a0162000257565b9550506040620003be89828a01620002d8565b9450506060620003d189828a0162000313565b9350506080620003e489828a0162000313565b92505060a0620003f789828a0162000313565b9150509295509295509295565b600081519050919050565b600082825260208201905092915050565b60005b838110156200044057808201518184015260208101905062000423565b8381111562000450576000848401525b50505050565b6000620004638262000404565b6200046f81856200040f565b93506200048181856020860162000420565b6200048c8162000132565b840191505092915050565b620004a281620002aa565b82525050565b620004b381620002ef565b82525050565b600060c0820190508181036000830152620004d5818962000456565b90508181036020830152620004eb818862000456565b9050620004fc604083018762000497565b6200050b6060830186620004a8565b6200051a6080830185620004a8565b6200052960a0830184620004a8565b97965050505050505056fe60806040523480156200001157600080fd5b5060405162000e6938038062000e698339818101604052810190620000379190620003b8565b85600090805190602001906200004f929190620000cb565b50846001908051906020019062000068929190620000cb565b5083600260006101000a81548173ffffffffffffffffffffffffffffffffffffffff021916908373ffffffffffffffffffffffffffffffffffffffff160217905550826003819055508160048190555080600581905550505050505050620004f6565b828054620000d990620004c1565b90600052602060002090601f016020900481019282620000fd576000855562000149565b82601f106200011857805160ff191683800117855562000149565b8280016001018555821562000149579182015b82811115620001485782518255916020019190600101906200012b565b5b5090506200015891906200015c565b5090565b5b80821115620001775760008160009055506001016200015d565b5090565b6000604051905090565b600080fd5b600080fd5b600080fd5b600080fd5b6000601f19601f8301169050919050565b7f4e487b7100000000000000000000000000000000000000000000000000000000600052604160045260246000fd5b620001e48262000199565b810181811067ffffffffffffffff82111715620002065762000205620001aa565b5b80604052505050565b60006200021b6200017b565b9050620002298282620001d9565b919050565b600067ffffffffffffffff8211156200024c576200024b620001aa565b5b620002578262000199565b9050602081019050919050565b60005b838110156200028457808201518184015260208101905062000267565b8381111562000294576000848401525b50505050565b6000620002b1620002ab846200022e565b6200020f565b905082815260208101848484011115620002d057620002cf62000194565b5b620002dd84828562000264565b509392505050565b600082601f830112620002fd57620002fc6200018f565b5b81516200030f8482602086016200029a565b91505092915050565b600073ffffffffffffffffffffffffffffffffffffffff82169050919050565b6000620003458262000318565b9050919050565b620003578162000338565b81146200036357600080fd5b50565b60008151905062000377816200034c565b92915050565b6000819050919050565b62000392816200037d565b81146200039e57600080fd5b50565b600081519050620003b28162000387565b92915050565b60008060008060008060c08789031215620003d857620003d762000185565b5b600087015167ffffffffffffffff811115620003f957620003f86200018a565b5b6200040789828a01620002e5565b965050602087015167ffffffffffffffff8111156200042b576200042a6200018a565b5b6200043989828a01620002e5565b95505060406200044c89828a0162000366565b94505060606200045f89828a01620003a1565b93505060806200047289828a01620003a1565b92505060a06200048589828a01620003a1565b9150509295509295509295565b7f4e487b7100000000000000000000000000000000000000000000000000000000600052602260045260246000fd5b60006002820490506001821680620004da57607f821691505b602082108103620004f057620004ef62000492565b5b50919050565b61096380620005066000396000f3fe6080604052600436106100865760003560e01c80637284e416116100595780637284e4161461013c5780638da5cb5b14610167578063953b8fb814610192578063c426ab4a146101bd578063d7bb99ba146101fa57610086565b806304e346671461008b57806306fdde03146100b6578063370158ea146100e15780635958611e14610111575b600080fd5b34801561009757600080fd5b506100a0610204565b6040516100ad9190610649565b60405180910390f35b3480156100c257600080fd5b506100cb61020a565b6040516100d891906106fd565b60405180910390f35b3480156100ed57600080fd5b506100f6610298565b60405161010896959493929190610760565b60405180910390f35b34801561011d57600080fd5b506101266103fd565b6040516101339190610649565b60405180910390f35b34801561014857600080fd5b50610151610403565b60405161015e91906106fd565b60405180910390f35b34801561017357600080fd5b5061017c610491565b60405161018991906107cf565b60405180910390f35b34801561019e57600080fd5b506101a76104b7565b6040516101b49190610649565b60405180910390f35b3480156101c957600080fd5b506101e460048036038101906101df919061081b565b6104bd565b6040516101f19190610649565b60405180910390f35b6102026104d5565b005b60035481565b6000805461021790610877565b80601f016020809104026020016040519081016040528092919081815260200182805461024390610877565b80156102905780601f1061026557610100808354040283529160200191610290565b820191906000526020600020905b81548152906001019060200180831161027357829003601f168201915b505050505081565b60608060008060008060006001600260009054906101000a900473ffffffffffffffffffffffffffffffffffffffff166003546004546005548580546102dd90610877565b80601f016020809104026020016040519081016040528092919081815260200182805461030990610877565b80156103565780601f1061032b57610100808354040283529160200191610356565b820191906000526020600020905b81548152906001019060200180831161033957829003601f168201915b5050505050955084805461036990610877565b80601f016020809104026020016040519081016040528092919081815260200182805461039590610877565b80156103e25780601f106103b7576101008083540402835291602001916103e2565b820191906000526020600020905b8154815290600101906020018083116103c557829003601f168201915b50505050509450955095509550955095509550909192939495565b60055481565b6001805461041090610877565b80601f016020809104026020016040519081016040528092919081815260200182805461043c90610877565b80156104895780601f1061045e57610100808354040283529160200191610489565b820191906000526020600020905b81548152906001019060200180831161046c57829003601f168201915b505050505081565b600260009054906101000a900473ffffffffffffffffffffffffffffffffffffffff1681565b60045481565b60076020528060005260406000206000915090505481565b6003543410156104e457600080fd5b6000600760003373ffffffffffffffffffffffffffffffffffffffff1673ffffffffffffffffffffffffffffffffffffffff16815260200190815260200160002054036105d7576006339080600181540180825580915050600190039060005260206000200160009091909190916101000a81548173ffffffffffffffffffffffffffffffffffffffff021916908373ffffffffffffffffffffffffffffffffffffffff16021790555034600760003373ffffffffffffffffffffffffffffffffffffffff1673ffffffffffffffffffffffffffffffffffffffff1681526020019081526020016000208190555061062e565b34600760003373ffffffffffffffffffffffffffffffffffffffff1673ffffffffffffffffffffffffffffffffffffffff168152602001908152602001600020600082825461062691906108d7565b925050819055505b565b6000819050919050565b61064381610630565b82525050565b600060208201905061065e600083018461063a565b92915050565b600081519050919050565b600082825260208201905092915050565b60005b8381101561069e578082015181840152602081019050610683565b838111156106ad576000848401525b50505050565b6000601f19601f8301169050919050565b60006106cf82610664565b6106d9818561066f565b93506106e9818560208601610680565b6106f2816106b3565b840191505092915050565b6000602082019050818103600083015261071781846106c4565b905092915050565b600073ffffffffffffffffffffffffffffffffffffffff82169050919050565b600061074a8261071f565b9050919050565b61075a8161073f565b82525050565b600060c082019050818103600083015261077a81896106c4565b9050818103602083015261078e81886106c4565b905061079d6040830187610751565b6107aa606083018661063a565b6107b7608083018561063a565b6107c460a083018461063a565b979650505050505050565b60006020820190506107e46000830184610751565b92915050565b600080fd5b6107f88161073f565b811461080357600080fd5b50565b600081359050610815816107ef565b92915050565b600060208284031215610831576108306107ea565b5b600061083f84828501610806565b91505092915050565b7f4e487b7100000000000000000000000000000000000000000000000000000000600052602260045260246000fd5b6000600282049050600182168061088f57607f821691505b6020821081036108a2576108a1610848565b5b50919050565b7f4e487b7100000000000000000000000000000000000000000000000000000000600052601160045260246000fd5b60006108e282610630565b91506108ed83610630565b9250827fffffffffffffffffffffffffffffffffffffffffffffffffffffffffffffffff03821115610922576109216108a8565b5b82820190509291505056fea2646970667358221220c4edd1e76449ac37d7389d11d400be5af053fc66ed829af41fb3be4dee23b52364736f6c634300080e0033a2646970667358221220c1fb0350bf71f8c1565b13c27c44713e0dff4ab660674f0e313070ffd536fdcd64736f6c634300080e0033",
  "immutableReferences": {},
  "source": "// SPDX-License-Identifier: MIT\r\npragma solidity >=0.8.14;\r\nimport \"./Project.sol\";\r\n\r\ncontract Manager {\r\n    address[] projects;\r\n\r\n    function createProject(\r\n        string memory name,\r\n        string memory des,\r\n        address creator,\r\n        uint256 min,\r\n        uint256 target,\r\n        uint256 finishTime\r\n    ) public {\r\n        Project newProject = new Project(\r\n            name,\r\n            des,\r\n            creator,\r\n            min,\r\n            target,\r\n            finishTime\r\n        );\r\n\r\n        projects.push(address(newProject));\r\n    }\r\n}\r\n",
  "sourcePath": "C:\\Users\\lethanhviet\\Desktop\\Repo\\crowdfunding\\contracts\\Manager.sol",
  "compiler": {
    "name": "solc",
    "version": "0.8.14+commit.80d49f37.Emscripten.clang"
  },
  "schemaVersion": "3.4.7",
  "updatedAt": "2022-06-12T15:35:41.841Z",
  "devdoc": {
    "kind": "dev",
    "methods": {},
    "version": 1
  },
  "userdoc": {
    "kind": "user",
    "methods": {},
    "version": 1
  }
}