{
  "contractName": "Project",
  "abi": [
    {
      "inputs": [
        {
          "internalType": "string",
          "name": "projectName",
          "type": "string"
        },
        {
          "internalType": "string",
          "name": "des",
          "type": "string"
        },
        {
          "internalType": "address",
          "name": "creator",
          "type": "address"
        },
        {
          "internalType": "uint256",
          "name": "min",
          "type": "uint256"
        },
        {
          "internalType": "uint256",
          "name": "target",
          "type": "uint256"
        },
        {
          "internalType": "uint256",
          "name": "finish",
          "type": "uint256"
        }
      ],
      "stateMutability": "nonpayable",
      "type": "constructor"
    },
    {
      "inputs": [],
      "name": "description",
      "outputs": [
        {
          "internalType": "string",
          "name": "",
          "type": "string"
        }
      ],
      "stateMutability": "view",
      "type": "function",
      "constant": true
    },
    {
      "inputs": [],
      "name": "finishTime",
      "outputs": [
        {
          "internalType": "uint256",
          "name": "",
          "type": "uint256"
        }
      ],
      "stateMutability": "view",
      "type": "function",
      "constant": true
    },
    {
      "inputs": [
        {
          "internalType": "address",
          "name": "",
          "type": "address"
        }
      ],
      "name": "investorsAmount",
      "outputs": [
        {
          "internalType": "uint256",
          "name": "",
          "type": "uint256"
        }
      ],
      "stateMutability": "view",
      "type": "function",
      "constant": true
    },
    {
      "inputs": [],
      "name": "minAmout",
      "outputs": [
        {
          "internalType": "uint256",
          "name": "",
          "type": "uint256"
        }
      ],
      "stateMutability": "view",
      "type": "function",
      "constant": true
    },
    {
      "inputs": [],
      "name": "name",
      "outputs": [
        {
          "internalType": "string",
          "name": "",
          "type": "string"
        }
      ],
      "stateMutability": "view",
      "type": "function",
      "constant": true
    },
    {
      "inputs": [],
      "name": "owner",
      "outputs": [
        {
          "internalType": "address",
          "name": "",
          "type": "address"
        }
      ],
      "stateMutability": "view",
      "type": "function",
      "constant": true
    },
    {
      "inputs": [],
      "name": "reqIndex",
      "outputs": [
        {
          "internalType": "uint256",
          "name": "",
          "type": "uint256"
        }
      ],
      "stateMutability": "view",
      "type": "function",
      "constant": true
    },
    {
      "inputs": [
        {
          "internalType": "uint256",
          "name": "",
          "type": "uint256"
        }
      ],
      "name": "requests",
      "outputs": [
        {
          "internalType": "uint256",
          "name": "amount",
          "type": "uint256"
        },
        {
          "internalType": "string",
          "name": "description",
          "type": "string"
        },
        {
          "internalType": "address payable",
          "name": "recipient",
          "type": "address"
        },
        {
          "internalType": "bool",
          "name": "isDone",
          "type": "bool"
        },
        {
          "internalType": "uint256",
          "name": "accreditCount",
          "type": "uint256"
        }
      ],
      "stateMutability": "view",
      "type": "function",
      "constant": true
    },
    {
      "inputs": [],
      "name": "targetAmount",
      "outputs": [
        {
          "internalType": "uint256",
          "name": "",
          "type": "uint256"
        }
      ],
      "stateMutability": "view",
      "type": "function",
      "constant": true
    },
    {
      "inputs": [],
      "name": "contribute",
      "outputs": [],
      "stateMutability": "payable",
      "type": "function",
      "payable": true
    },
    {
      "inputs": [
        {
          "internalType": "uint256",
          "name": "amount",
          "type": "uint256"
        },
        {
          "internalType": "string",
          "name": "desc",
          "type": "string"
        },
        {
          "internalType": "address payable",
          "name": "recipient",
          "type": "address"
        }
      ],
      "name": "createRequest",
      "outputs": [],
      "stateMutability": "nonpayable",
      "type": "function"
    },
    {
      "inputs": [
        {
          "internalType": "uint256",
          "name": "ind",
          "type": "uint256"
        }
      ],
      "name": "accreditRequest",
      "outputs": [],
      "stateMutability": "nonpayable",
      "type": "function"
    },
    {
      "inputs": [
        {
          "internalType": "uint256",
          "name": "ind",
          "type": "uint256"
        }
      ],
      "name": "resolveRequest",
      "outputs": [],
      "stateMutability": "nonpayable",
      "type": "function"
    },
    {
      "inputs": [
        {
          "internalType": "uint256",
          "name": "ind",
          "type": "uint256"
        }
      ],
      "name": "getIsAccreditedRequest",
      "outputs": [
        {
          "internalType": "bool",
          "name": "",
          "type": "bool"
        }
      ],
      "stateMutability": "view",
      "type": "function",
      "constant": true
    },
    {
      "inputs": [],
      "name": "info",
      "outputs": [
        {
          "internalType": "string",
          "name": "",
          "type": "string"
        },
        {
          "internalType": "string",
          "name": "",
          "type": "string"
        },
        {
          "internalType": "address",
          "name": "",
          "type": "address"
        },
        {
          "internalType": "uint256",
          "name": "",
          "type": "uint256"
        },
        {
          "internalType": "uint256",
          "name": "",
          "type": "uint256"
        },
        {
          "internalType": "uint256",
          "name": "",
          "type": "uint256"
        },
        {
          "internalType": "uint256",
          "name": "",
          "type": "uint256"
        }
      ],
      "stateMutability": "view",
      "type": "function",
      "constant": true
    },
    {
      "inputs": [],
      "name": "getInvestors",
      "outputs": [
        {
          "internalType": "uint256",
          "name": "",
          "type": "uint256"
        }
      ],
      "stateMutability": "view",
      "type": "function",
      "constant": true
    },
    {
      "inputs": [],
      "name": "getInvestorsAddress",
      "outputs": [
        {
          "internalType": "address[]",
          "name": "",
          "type": "address[]"
        }
      ],
      "stateMutability": "view",
      "type": "function",
      "constant": true
    }
  ],
  "bytecode": "0x60806040523480156200001157600080fd5b5060405162001fda38038062001fda8339818101604052810190620000379190620003c0565b85600090805190602001906200004f929190620000d3565b50846001908051906020019062000068929190620000d3565b5083600260006101000a81548173ffffffffffffffffffffffffffffffffffffffff021916908373ffffffffffffffffffffffffffffffffffffffff1602179055508260038190555081600481905550806005819055506000600681905550505050505050620004fe565b828054620000e190620004c9565b90600052602060002090601f01602090048101928262000105576000855562000151565b82601f106200012057805160ff191683800117855562000151565b8280016001018555821562000151579182015b828111156200015057825182559160200191906001019062000133565b5b50905062000160919062000164565b5090565b5b808211156200017f57600081600090555060010162000165565b5090565b6000604051905090565b600080fd5b600080fd5b600080fd5b600080fd5b6000601f19601f8301169050919050565b7f4e487b7100000000000000000000000000000000000000000000000000000000600052604160045260246000fd5b620001ec82620001a1565b810181811067ffffffffffffffff821117156200020e576200020d620001b2565b5b80604052505050565b60006200022362000183565b9050620002318282620001e1565b919050565b600067ffffffffffffffff821115620002545762000253620001b2565b5b6200025f82620001a1565b9050602081019050919050565b60005b838110156200028c5780820151818401526020810190506200026f565b838111156200029c576000848401525b50505050565b6000620002b9620002b38462000236565b62000217565b905082815260208101848484011115620002d857620002d76200019c565b5b620002e58482856200026c565b509392505050565b600082601f83011262000305576200030462000197565b5b815162000317848260208601620002a2565b91505092915050565b600073ffffffffffffffffffffffffffffffffffffffff82169050919050565b60006200034d8262000320565b9050919050565b6200035f8162000340565b81146200036b57600080fd5b50565b6000815190506200037f8162000354565b92915050565b6000819050919050565b6200039a8162000385565b8114620003a657600080fd5b50565b600081519050620003ba816200038f565b92915050565b60008060008060008060c08789031215620003e057620003df6200018d565b5b600087015167ffffffffffffffff81111562000401576200040062000192565b5b6200040f89828a01620002ed565b965050602087015167ffffffffffffffff81111562000433576200043262000192565b5b6200044189828a01620002ed565b95505060406200045489828a016200036e565b94505060606200046789828a01620003a9565b93505060806200047a89828a01620003a9565b92505060a06200048d89828a01620003a9565b9150509295509295509295565b7f4e487b7100000000000000000000000000000000000000000000000000000000600052602260045260246000fd5b60006002820490506001821680620004e257607f821691505b602082108103620004f857620004f76200049a565b5b50919050565b611acc806200050e6000396000f3fe6080604052600436106100fe5760003560e01c80638a92e5a011610095578063b9a4509811610064578063b9a4509814610331578063c426ab4a1461035c578063ce9ac84d14610399578063d1585a6d146103c2578063d7bb99ba146103ed576100fe565b80638a92e5a0146102735780638da5cb5b146102b0578063953b8fb8146102db578063b2f5a54c14610306576100fe565b80635ed57ea6116100d15780635ed57ea6146101b557806363cdab61146101de5780637284e4161461020757806381d12c5814610232576100fe565b806304e346671461010357806306fdde031461012e578063370158ea146101595780635958611e1461018a575b600080fd5b34801561010f57600080fd5b506101186103f7565b6040516101259190611019565b60405180910390f35b34801561013a57600080fd5b506101436103fd565b60405161015091906110cd565b60405180910390f35b34801561016557600080fd5b5061016e61048b565b6040516101819796959493929190611130565b60405180910390f35b34801561019657600080fd5b5061019f6105f5565b6040516101ac9190611019565b60405180910390f35b3480156101c157600080fd5b506101dc60048036038101906101d791906111ed565b6105fb565b005b3480156101ea57600080fd5b50610205600480360381019061020091906111ed565b6107ed565b005b34801561021357600080fd5b5061021c6109b0565b60405161022991906110cd565b60405180910390f35b34801561023e57600080fd5b50610259600480360381019061025491906111ed565b610a3e565b60405161026a959493929190611256565b60405180910390f35b34801561027f57600080fd5b5061029a600480360381019061029591906111ed565b610b29565b6040516102a791906112b0565b60405180910390f35b3480156102bc57600080fd5b506102c5610b98565b6040516102d291906112cb565b60405180910390f35b3480156102e757600080fd5b506102f0610bbe565b6040516102fd9190611019565b60405180910390f35b34801561031257600080fd5b5061031b610bc4565b6040516103289190611019565b60405180910390f35b34801561033d57600080fd5b50610346610bd1565b6040516103539190611019565b60405180910390f35b34801561036857600080fd5b50610383600480360381019061037e9190611312565b610bd7565b6040516103909190611019565b60405180910390f35b3480156103a557600080fd5b506103c060048036038101906103bb91906114a0565b610bef565b005b3480156103ce57600080fd5b506103d7610d3e565b6040516103e491906115cd565b60405180910390f35b6103f5610dcc565b005b60035481565b6000805461040a9061161e565b80601f01602080910402602001604051908101604052809291908181526020018280546104369061161e565b80156104835780601f1061045857610100808354040283529160200191610483565b820191906000526020600020905b81548152906001019060200180831161046657829003601f168201915b505050505081565b6060806000806000806000806001600260009054906101000a900473ffffffffffffffffffffffffffffffffffffffff16600354600454600554478680546104d29061161e565b80601f01602080910402602001604051908101604052809291908181526020018280546104fe9061161e565b801561054b5780601f106105205761010080835404028352916020019161054b565b820191906000526020600020905b81548152906001019060200180831161052e57829003601f168201915b5050505050965085805461055e9061161e565b80601f016020809104026020016040519081016040528092919081815260200182805461058a9061161e565b80156105d75780601f106105ac576101008083540402835291602001916105d7565b820191906000526020600020905b8154815290600101906020018083116105ba57829003601f168201915b50505050509550965096509650965096509650965090919293949596565b60055481565b60006007600083815260200190815260200160002090506000600960003373ffffffffffffffffffffffffffffffffffffffff1673ffffffffffffffffffffffffffffffffffffffff1681526020019081526020016000205411610694576040517f08c379a000000000000000000000000000000000000000000000000000000000815260040161068b9061169b565b60405180910390fd5b8060040160003373ffffffffffffffffffffffffffffffffffffffff1673ffffffffffffffffffffffffffffffffffffffff16815260200190815260200160002060009054906101000a900460ff1615610723576040517f08c379a000000000000000000000000000000000000000000000000000000000815260040161071a90611707565b60405180910390fd5b8060020160149054906101000a900460ff1615610775576040517f08c379a000000000000000000000000000000000000000000000000000000000815260040161076c90611799565b60405180910390fd5b60018160040160003373ffffffffffffffffffffffffffffffffffffffff1673ffffffffffffffffffffffffffffffffffffffff16815260200190815260200160002060006101000a81548160ff0219169083151502179055508060030160008154809291906107e4906117e8565b91905055505050565b600260009054906101000a900473ffffffffffffffffffffffffffffffffffffffff1673ffffffffffffffffffffffffffffffffffffffff163373ffffffffffffffffffffffffffffffffffffffff161461087d576040517f08c379a00000000000000000000000000000000000000000000000000000000081526004016108749061187c565b60405180910390fd5b600060076000838152602001908152602001600020905060026008805490506108a691906118cb565b8160030154116108eb576040517f08c379a00000000000000000000000000000000000000000000000000000000081526004016108e290611948565b60405180910390fd5b8060020160149054906101000a900460ff161561093d576040517f08c379a0000000000000000000000000000000000000000000000000000000008152600401610934906119b4565b60405180910390fd5b8060020160009054906101000a900473ffffffffffffffffffffffffffffffffffffffff1673ffffffffffffffffffffffffffffffffffffffff166108fc82600001549081150290604051600060405180830381858888f193505050501580156109ab573d6000803e3d6000fd5b505050565b600180546109bd9061161e565b80601f01602080910402602001604051908101604052809291908181526020018280546109e99061161e565b8015610a365780601f10610a0b57610100808354040283529160200191610a36565b820191906000526020600020905b815481529060010190602001808311610a1957829003601f168201915b505050505081565b6007602052806000526040600020600091509050806000015490806001018054610a679061161e565b80601f0160208091040260200160405190810160405280929190818152602001828054610a939061161e565b8015610ae05780601f10610ab557610100808354040283529160200191610ae0565b820191906000526020600020905b815481529060010190602001808311610ac357829003601f168201915b5050505050908060020160009054906101000a900473ffffffffffffffffffffffffffffffffffffffff16908060020160149054906101000a900460ff16908060030154905085565b6000806007600084815260200190815260200160002090508060040160003373ffffffffffffffffffffffffffffffffffffffff1673ffffffffffffffffffffffffffffffffffffffff16815260200190815260200160002060009054906101000a900460ff16915050919050565b600260009054906101000a900473ffffffffffffffffffffffffffffffffffffffff1681565b60045481565b6000600880549050905090565b60065481565b60096020528060005260406000206000915090505481565b600260009054906101000a900473ffffffffffffffffffffffffffffffffffffffff1673ffffffffffffffffffffffffffffffffffffffff163373ffffffffffffffffffffffffffffffffffffffff1614610c7f576040517f08c379a0000000000000000000000000000000000000000000000000000000008152600401610c769061187c565b60405180910390fd5b60006007600060066000815480929190610c98906117e8565b919050558152602001908152602001600020905083816000018190555082816001019080519060200190610ccd929190610f5d565b50818160020160006101000a81548173ffffffffffffffffffffffffffffffffffffffff021916908373ffffffffffffffffffffffffffffffffffffffff16021790555060008160020160146101000a81548160ff0219169083151502179055506000816003018190555050505050565b60606008805480602002602001604051908101604052809291908181526020018280548015610dc257602002820191906000526020600020905b8160009054906101000a900473ffffffffffffffffffffffffffffffffffffffff1673ffffffffffffffffffffffffffffffffffffffff1681526020019060010190808311610d78575b5050505050905090565b600354341015610e11576040517f08c379a0000000000000000000000000000000000000000000000000000000008152600401610e0890611a20565b60405180910390fd5b6000600960003373ffffffffffffffffffffffffffffffffffffffff1673ffffffffffffffffffffffffffffffffffffffff1681526020019081526020016000205403610f04576008339080600181540180825580915050600190039060005260206000200160009091909190916101000a81548173ffffffffffffffffffffffffffffffffffffffff021916908373ffffffffffffffffffffffffffffffffffffffff16021790555034600960003373ffffffffffffffffffffffffffffffffffffffff1673ffffffffffffffffffffffffffffffffffffffff16815260200190815260200160002081905550610f5b565b34600960003373ffffffffffffffffffffffffffffffffffffffff1673ffffffffffffffffffffffffffffffffffffffff1681526020019081526020016000206000828254610f539190611a40565b925050819055505b565b828054610f699061161e565b90600052602060002090601f016020900481019282610f8b5760008555610fd2565b82601f10610fa457805160ff1916838001178555610fd2565b82800160010185558215610fd2579182015b82811115610fd1578251825591602001919060010190610fb6565b5b509050610fdf9190610fe3565b5090565b5b80821115610ffc576000816000905550600101610fe4565b5090565b6000819050919050565b61101381611000565b82525050565b600060208201905061102e600083018461100a565b92915050565b600081519050919050565b600082825260208201905092915050565b60005b8381101561106e578082015181840152602081019050611053565b8381111561107d576000848401525b50505050565b6000601f19601f8301169050919050565b600061109f82611034565b6110a9818561103f565b93506110b9818560208601611050565b6110c281611083565b840191505092915050565b600060208201905081810360008301526110e78184611094565b905092915050565b600073ffffffffffffffffffffffffffffffffffffffff82169050919050565b600061111a826110ef565b9050919050565b61112a8161110f565b82525050565b600060e082019050818103600083015261114a818a611094565b9050818103602083015261115e8189611094565b905061116d6040830188611121565b61117a606083018761100a565b611187608083018661100a565b61119460a083018561100a565b6111a160c083018461100a565b98975050505050505050565b6000604051905090565b600080fd5b600080fd5b6111ca81611000565b81146111d557600080fd5b50565b6000813590506111e7816111c1565b92915050565b600060208284031215611203576112026111b7565b5b6000611211848285016111d8565b91505092915050565b6000611225826110ef565b9050919050565b6112358161121a565b82525050565b60008115159050919050565b6112508161123b565b82525050565b600060a08201905061126b600083018861100a565b818103602083015261127d8187611094565b905061128c604083018661122c565b6112996060830185611247565b6112a6608083018461100a565b9695505050505050565b60006020820190506112c56000830184611247565b92915050565b60006020820190506112e06000830184611121565b92915050565b6112ef8161110f565b81146112fa57600080fd5b50565b60008135905061130c816112e6565b92915050565b600060208284031215611328576113276111b7565b5b6000611336848285016112fd565b91505092915050565b600080fd5b600080fd5b7f4e487b7100000000000000000000000000000000000000000000000000000000600052604160045260246000fd5b61138182611083565b810181811067ffffffffffffffff821117156113a05761139f611349565b5b80604052505050565b60006113b36111ad565b90506113bf8282611378565b919050565b600067ffffffffffffffff8211156113df576113de611349565b5b6113e882611083565b9050602081019050919050565b82818337600083830152505050565b6000611417611412846113c4565b6113a9565b90508281526020810184848401111561143357611432611344565b5b61143e8482856113f5565b509392505050565b600082601f83011261145b5761145a61133f565b5b813561146b848260208601611404565b91505092915050565b61147d8161121a565b811461148857600080fd5b50565b60008135905061149a81611474565b92915050565b6000806000606084860312156114b9576114b86111b7565b5b60006114c7868287016111d8565b935050602084013567ffffffffffffffff8111156114e8576114e76111bc565b5b6114f486828701611446565b92505060406115058682870161148b565b9150509250925092565b600081519050919050565b600082825260208201905092915050565b6000819050602082019050919050565b6115448161110f565b82525050565b6000611556838361153b565b60208301905092915050565b6000602082019050919050565b600061157a8261150f565b611584818561151a565b935061158f8361152b565b8060005b838110156115c05781516115a7888261154a565b97506115b283611562565b925050600181019050611593565b5085935050505092915050565b600060208201905081810360008301526115e7818461156f565b905092915050565b7f4e487b7100000000000000000000000000000000000000000000000000000000600052602260045260246000fd5b6000600282049050600182168061163657607f821691505b602082108103611649576116486115ef565b5b50919050565b7f4e6f7420616e20696e766573746f720000000000000000000000000000000000600082015250565b6000611685600f8361103f565b91506116908261164f565b602082019050919050565b600060208201905081810360008301526116b481611678565b9050919050565b7f48617320616c726561647920676976656e2063726564697420666f7200000000600082015250565b60006116f1601c8361103f565b91506116fc826116bb565b602082019050919050565b60006020820190508181036000830152611720816116e4565b9050919050565b7f526571756573742068617320616c7265616479206265656e206163637265646960008201527f7465640000000000000000000000000000000000000000000000000000000000602082015250565b600061178360238361103f565b915061178e82611727565b604082019050919050565b600060208201905081810360008301526117b281611776565b9050919050565b7f4e487b7100000000000000000000000000000000000000000000000000000000600052601160045260246000fd5b60006117f382611000565b91507fffffffffffffffffffffffffffffffffffffffffffffffffffffffffffffffff8203611825576118246117b9565b5b600182019050919050565b7f53656e646572206e6f7420617574686f72697a65642e00000000000000000000600082015250565b600061186660168361103f565b915061187182611830565b602082019050919050565b6000602082019050818103600083015261189581611859565b9050919050565b7f4e487b7100000000000000000000000000000000000000000000000000000000600052601260045260246000fd5b60006118d682611000565b91506118e183611000565b9250826118f1576118f061189c565b5b828204905092915050565b7f4e6f7420656e6f75676820766f74657300000000000000000000000000000000600082015250565b600061193260108361103f565b915061193d826118fc565b602082019050919050565b6000602082019050818103600083015261196181611925565b9050919050565b7f486173206265656e20646f6e6500000000000000000000000000000000000000600082015250565b600061199e600d8361103f565b91506119a982611968565b602082019050919050565b600060208201905081810360008301526119cd81611991565b9050919050565b7f496e73756666696369656e7420616d6f756e7400000000000000000000000000600082015250565b6000611a0a60138361103f565b9150611a15826119d4565b602082019050919050565b60006020820190508181036000830152611a39816119fd565b9050919050565b6000611a4b82611000565b9150611a5683611000565b9250827fffffffffffffffffffffffffffffffffffffffffffffffffffffffffffffffff03821115611a8b57611a8a6117b9565b5b82820190509291505056fea264697066735822122082b95641018b634a72f4f825868de78a8a5c88ac2bebedb96262c665c13345f664736f6c634300080e0033",
  "immutableReferences": {},
  "source": "// SPDX-License-Identifier: MIT\r\npragma solidity >=0.8.14;\r\n\r\ncontract Project {\r\n    struct Request {\r\n        uint256 amount;\r\n        string description;\r\n        address payable recipient;\r\n        bool isDone;\r\n        uint256 accreditCount;\r\n        mapping(address => bool) investorsAccredited;\r\n    }\r\n\r\n    string public name;\r\n    string public description;\r\n    address public owner;\r\n    uint256 public minAmout;\r\n    uint256 public targetAmount;\r\n    uint256 public finishTime;\r\n    uint256 public reqIndex;\r\n    mapping(uint256 => Request) public requests;\r\n\r\n    address[] investorsAddress;\r\n    mapping(address => uint256) public investorsAmount;\r\n\r\n    modifier onlyOwner() {\r\n        require(msg.sender == owner, 'Sender not authorized.');\r\n        _;\r\n    }\r\n\r\n    constructor(\r\n        string memory projectName,\r\n        string memory des,\r\n        address creator,\r\n        uint256 min,\r\n        uint256 target,\r\n        uint256 finish\r\n    ) {\r\n        name = projectName;\r\n        description = des;\r\n        owner = creator;\r\n        minAmout = min;\r\n        targetAmount = target;\r\n        finishTime = finish;\r\n        reqIndex = 0;\r\n    }\r\n\r\n    function contribute() public payable {\r\n        require(msg.value >= minAmout, \"Insufficient amount\");\r\n\r\n        if (investorsAmount[msg.sender] == 0) {\r\n            investorsAddress.push(msg.sender);\r\n            investorsAmount[msg.sender] = msg.value;\r\n        } else {\r\n            investorsAmount[msg.sender] += msg.value;\r\n        }\r\n    }\r\n\r\n    function createRequest(uint256 amount, string memory desc, address payable recipient) public onlyOwner {\r\n        Request storage newReq = requests[reqIndex++];\r\n        newReq.amount = amount;\r\n        newReq.description = desc;\r\n        newReq.recipient = recipient;\r\n        newReq.isDone = false;\r\n        newReq.accreditCount = 0;\r\n    }\r\n\r\n    function accreditRequest(uint256 ind) public {\r\n        Request storage request = requests[ind];\r\n\r\n        require(investorsAmount[msg.sender] > 0, \"Not an investor\");\r\n        require(!request.investorsAccredited[msg.sender], \"Has already given credit for\");\r\n        require(!request.isDone, \"Request has already been accredited\");\r\n\r\n        request.investorsAccredited[msg.sender] = true;\r\n        request.accreditCount++;\r\n    }\r\n\r\n    function resolveRequest(uint256 ind) public onlyOwner {\r\n        Request storage request = requests[ind];\r\n\r\n        require(request.accreditCount > (investorsAddress.length / 2), \"Not enough votes\");\r\n        require(!request.isDone, \"Has been done\");\r\n\r\n        request.recipient.transfer(request.amount);\r\n    }\r\n\r\n    function getIsAccreditedRequest(uint256 ind) external view returns (bool) {\r\n        Request storage req = requests[ind];\r\n        return req.investorsAccredited[msg.sender];\r\n    }\r\n\r\n    function info()\r\n        public\r\n        view\r\n        returns (\r\n            string memory,\r\n            string memory,\r\n            address,\r\n            uint256,\r\n            uint256,\r\n            uint256,\r\n            uint256\r\n        )\r\n    {\r\n        return (name, description, owner, minAmout, targetAmount, finishTime, address(this).balance);\r\n    }\r\n\r\n    function getInvestors() external view returns (uint256) {\r\n        return investorsAddress.length;\r\n    }\r\n\r\n    function getInvestorsAddress() external view returns (address[] memory) {\r\n        return investorsAddress;\r\n    }\r\n}\r\n",
  "sourcePath": "C:\\work\\crowdfunding\\contracts\\Project.sol",
  "compiler": {
    "name": "solc",
    "version": "0.8.14+commit.80d49f37.Emscripten.clang"
  },
  "schemaVersion": "3.4.7",
  "updatedAt": "2022-06-15T14:51:22.129Z",
  "networkType": "ethereum",
  "devdoc": {
    "kind": "dev",
    "methods": {},
    "version": 1
  },
  "userdoc": {
    "kind": "user",
    "methods": {},
    "version": 1
  }
}