{
  "contractName": "Project",
  "abi": [
    {
      "inputs": [
        {
          "internalType": "string",
          "name": "projectName",
          "type": "string"
        },
        {
          "internalType": "string",
          "name": "des",
          "type": "string"
        },
        {
          "internalType": "address",
          "name": "creator",
          "type": "address"
        },
        {
          "internalType": "uint256",
          "name": "min",
          "type": "uint256"
        },
        {
          "internalType": "uint256",
          "name": "target",
          "type": "uint256"
        },
        {
          "internalType": "uint256",
          "name": "finish",
          "type": "uint256"
        }
      ],
      "stateMutability": "nonpayable",
      "type": "constructor"
    },
    {
      "anonymous": false,
      "inputs": [
        {
          "indexed": false,
          "internalType": "uint256",
          "name": "index",
          "type": "uint256"
        },
        {
          "indexed": false,
          "internalType": "address",
          "name": "investor",
          "type": "address"
        },
        {
          "indexed": false,
          "internalType": "address",
          "name": "projectAddress",
          "type": "address"
        }
      ],
      "name": "AccreditRequest",
      "type": "event"
    },
    {
      "anonymous": false,
      "inputs": [
        {
          "indexed": false,
          "internalType": "address",
          "name": "contributor",
          "type": "address"
        },
        {
          "indexed": false,
          "internalType": "uint256",
          "name": "amount",
          "type": "uint256"
        },
        {
          "indexed": false,
          "internalType": "address",
          "name": "projectAddress",
          "type": "address"
        }
      ],
      "name": "Contribute",
      "type": "event"
    },
    {
      "anonymous": false,
      "inputs": [
        {
          "indexed": false,
          "internalType": "uint256",
          "name": "amount",
          "type": "uint256"
        },
        {
          "indexed": false,
          "internalType": "string",
          "name": "description",
          "type": "string"
        },
        {
          "indexed": false,
          "internalType": "address",
          "name": "recipient",
          "type": "address"
        },
        {
          "indexed": false,
          "internalType": "bool",
          "name": "isDone",
          "type": "bool"
        },
        {
          "indexed": false,
          "internalType": "uint256",
          "name": "accreditCount",
          "type": "uint256"
        },
        {
          "indexed": false,
          "internalType": "address",
          "name": "projectAddress",
          "type": "address"
        }
      ],
      "name": "CreateRequest",
      "type": "event"
    },
    {
      "anonymous": false,
      "inputs": [
        {
          "indexed": false,
          "internalType": "uint256",
          "name": "index",
          "type": "uint256"
        },
        {
          "indexed": false,
          "internalType": "address",
          "name": "projectAddress",
          "type": "address"
        }
      ],
      "name": "ResolveRequest",
      "type": "event"
    },
    {
      "anonymous": false,
      "inputs": [
        {
          "indexed": false,
          "internalType": "address",
          "name": "investor",
          "type": "address"
        },
        {
          "indexed": false,
          "internalType": "uint256",
          "name": "amount",
          "type": "uint256"
        },
        {
          "indexed": false,
          "internalType": "address",
          "name": "projectAddress",
          "type": "address"
        }
      ],
      "name": "Withdraw",
      "type": "event"
    },
    {
      "inputs": [],
      "name": "description",
      "outputs": [
        {
          "internalType": "string",
          "name": "",
          "type": "string"
        }
      ],
      "stateMutability": "view",
      "type": "function",
      "constant": true
    },
    {
      "inputs": [],
      "name": "finishTime",
      "outputs": [
        {
          "internalType": "uint256",
          "name": "",
          "type": "uint256"
        }
      ],
      "stateMutability": "view",
      "type": "function",
      "constant": true
    },
    {
      "inputs": [
        {
          "internalType": "address",
          "name": "",
          "type": "address"
        }
      ],
      "name": "investorsAmount",
      "outputs": [
        {
          "internalType": "uint256",
          "name": "",
          "type": "uint256"
        }
      ],
      "stateMutability": "view",
      "type": "function",
      "constant": true
    },
    {
      "inputs": [],
      "name": "minAmout",
      "outputs": [
        {
          "internalType": "uint256",
          "name": "",
          "type": "uint256"
        }
      ],
      "stateMutability": "view",
      "type": "function",
      "constant": true
    },
    {
      "inputs": [],
      "name": "name",
      "outputs": [
        {
          "internalType": "string",
          "name": "",
          "type": "string"
        }
      ],
      "stateMutability": "view",
      "type": "function",
      "constant": true
    },
    {
      "inputs": [],
      "name": "owner",
      "outputs": [
        {
          "internalType": "address",
          "name": "",
          "type": "address"
        }
      ],
      "stateMutability": "view",
      "type": "function",
      "constant": true
    },
    {
      "inputs": [],
      "name": "reqIndex",
      "outputs": [
        {
          "internalType": "uint256",
          "name": "",
          "type": "uint256"
        }
      ],
      "stateMutability": "view",
      "type": "function",
      "constant": true
    },
    {
      "inputs": [
        {
          "internalType": "uint256",
          "name": "",
          "type": "uint256"
        }
      ],
      "name": "requests",
      "outputs": [
        {
          "internalType": "uint256",
          "name": "amount",
          "type": "uint256"
        },
        {
          "internalType": "string",
          "name": "description",
          "type": "string"
        },
        {
          "internalType": "address payable",
          "name": "recipient",
          "type": "address"
        },
        {
          "internalType": "bool",
          "name": "isDone",
          "type": "bool"
        },
        {
          "internalType": "uint256",
          "name": "accreditCount",
          "type": "uint256"
        }
      ],
      "stateMutability": "view",
      "type": "function",
      "constant": true
    },
    {
      "inputs": [],
      "name": "targetAmount",
      "outputs": [
        {
          "internalType": "uint256",
          "name": "",
          "type": "uint256"
        }
      ],
      "stateMutability": "view",
      "type": "function",
      "constant": true
    },
    {
      "inputs": [],
      "name": "contribute",
      "outputs": [],
      "stateMutability": "payable",
      "type": "function",
      "payable": true
    },
    {
      "inputs": [
        {
          "internalType": "uint256",
          "name": "amount",
          "type": "uint256"
        },
        {
          "internalType": "string",
          "name": "desc",
          "type": "string"
        },
        {
          "internalType": "address payable",
          "name": "recipient",
          "type": "address"
        }
      ],
      "name": "createRequest",
      "outputs": [],
      "stateMutability": "nonpayable",
      "type": "function"
    },
    {
      "inputs": [
        {
          "internalType": "uint256",
          "name": "ind",
          "type": "uint256"
        }
      ],
      "name": "accreditRequest",
      "outputs": [],
      "stateMutability": "nonpayable",
      "type": "function"
    },
    {
      "inputs": [
        {
          "internalType": "uint256",
          "name": "ind",
          "type": "uint256"
        }
      ],
      "name": "resolveRequest",
      "outputs": [],
      "stateMutability": "nonpayable",
      "type": "function"
    },
    {
      "inputs": [],
      "name": "withdraw",
      "outputs": [],
      "stateMutability": "nonpayable",
      "type": "function"
    },
    {
      "inputs": [
        {
          "internalType": "uint256",
          "name": "ind",
          "type": "uint256"
        }
      ],
      "name": "getIsAccreditedRequest",
      "outputs": [
        {
          "internalType": "bool",
          "name": "",
          "type": "bool"
        }
      ],
      "stateMutability": "view",
      "type": "function",
      "constant": true
    },
    {
      "inputs": [],
      "name": "info",
      "outputs": [
        {
          "internalType": "string",
          "name": "",
          "type": "string"
        },
        {
          "internalType": "string",
          "name": "",
          "type": "string"
        },
        {
          "internalType": "address",
          "name": "",
          "type": "address"
        },
        {
          "internalType": "uint256",
          "name": "",
          "type": "uint256"
        },
        {
          "internalType": "uint256",
          "name": "",
          "type": "uint256"
        },
        {
          "internalType": "uint256",
          "name": "",
          "type": "uint256"
        },
        {
          "internalType": "uint256",
          "name": "",
          "type": "uint256"
        }
      ],
      "stateMutability": "view",
      "type": "function",
      "constant": true
    },
    {
      "inputs": [],
      "name": "getInvestors",
      "outputs": [
        {
          "internalType": "uint256",
          "name": "",
          "type": "uint256"
        }
      ],
      "stateMutability": "view",
      "type": "function",
      "constant": true
    },
    {
      "inputs": [],
      "name": "getInvestorsAddress",
      "outputs": [
        {
          "internalType": "address[]",
          "name": "",
          "type": "address[]"
        }
      ],
      "stateMutability": "view",
      "type": "function",
      "constant": true
    }
  ],
  "bytecode": "0x60806040523480156200001157600080fd5b5060405162002b2138038062002b218339818101604052810190620000379190620003c0565b85600090805190602001906200004f929190620000d3565b50846001908051906020019062000068929190620000d3565b5083600260006101000a81548173ffffffffffffffffffffffffffffffffffffffff021916908373ffffffffffffffffffffffffffffffffffffffff1602179055508260038190555081600481905550806005819055506000600681905550505050505050620004fe565b828054620000e190620004c9565b90600052602060002090601f01602090048101928262000105576000855562000151565b82601f106200012057805160ff191683800117855562000151565b8280016001018555821562000151579182015b828111156200015057825182559160200191906001019062000133565b5b50905062000160919062000164565b5090565b5b808211156200017f57600081600090555060010162000165565b5090565b6000604051905090565b600080fd5b600080fd5b600080fd5b600080fd5b6000601f19601f8301169050919050565b7f4e487b7100000000000000000000000000000000000000000000000000000000600052604160045260246000fd5b620001ec82620001a1565b810181811067ffffffffffffffff821117156200020e576200020d620001b2565b5b80604052505050565b60006200022362000183565b9050620002318282620001e1565b919050565b600067ffffffffffffffff821115620002545762000253620001b2565b5b6200025f82620001a1565b9050602081019050919050565b60005b838110156200028c5780820151818401526020810190506200026f565b838111156200029c576000848401525b50505050565b6000620002b9620002b38462000236565b62000217565b905082815260208101848484011115620002d857620002d76200019c565b5b620002e58482856200026c565b509392505050565b600082601f83011262000305576200030462000197565b5b815162000317848260208601620002a2565b91505092915050565b600073ffffffffffffffffffffffffffffffffffffffff82169050919050565b60006200034d8262000320565b9050919050565b6200035f8162000340565b81146200036b57600080fd5b50565b6000815190506200037f8162000354565b92915050565b6000819050919050565b6200039a8162000385565b8114620003a657600080fd5b50565b600081519050620003ba816200038f565b92915050565b60008060008060008060c08789031215620003e057620003df6200018d565b5b600087015167ffffffffffffffff81111562000401576200040062000192565b5b6200040f89828a01620002ed565b965050602087015167ffffffffffffffff81111562000433576200043262000192565b5b6200044189828a01620002ed565b95505060406200045489828a016200036e565b94505060606200046789828a01620003a9565b93505060806200047a89828a01620003a9565b92505060a06200048d89828a01620003a9565b9150509295509295509295565b7f4e487b7100000000000000000000000000000000000000000000000000000000600052602260045260246000fd5b60006002820490506001821680620004e257607f821691505b602082108103620004f857620004f76200049a565b5b50919050565b612613806200050e6000396000f3fe6080604052600436106101095760003560e01c80638a92e5a011610095578063b9a4509811610064578063b9a4509814610353578063c426ab4a1461037e578063ce9ac84d146103bb578063d1585a6d146103e4578063d7bb99ba1461040f57610109565b80638a92e5a0146102955780638da5cb5b146102d2578063953b8fb8146102fd578063b2f5a54c1461032857610109565b80635958611e116100dc5780635958611e146101ac5780635ed57ea6146101d757806363cdab61146102005780637284e4161461022957806381d12c581461025457610109565b806304e346671461010e57806306fdde0314610139578063370158ea146101645780633ccfd60b14610195575b600080fd5b34801561011a57600080fd5b50610123610419565b6040516101309190611667565b60405180910390f35b34801561014557600080fd5b5061014e61041f565b60405161015b919061171b565b60405180910390f35b34801561017057600080fd5b506101796104ad565b60405161018c979695949392919061177e565b60405180910390f35b3480156101a157600080fd5b506101aa610617565b005b3480156101b857600080fd5b506101c161085b565b6040516101ce9190611667565b60405180910390f35b3480156101e357600080fd5b506101fe60048036038101906101f9919061183b565b610861565b005b34801561020c57600080fd5b506102276004803603810190610222919061183b565b610a8e565b005b34801561023557600080fd5b5061023e610d54565b60405161024b919061171b565b60405180910390f35b34801561026057600080fd5b5061027b6004803603810190610276919061183b565b610de2565b60405161028c9594939291906118a4565b60405180910390f35b3480156102a157600080fd5b506102bc60048036038101906102b7919061183b565b610ecd565b6040516102c991906118fe565b60405180910390f35b3480156102de57600080fd5b506102e7610f3c565b6040516102f49190611919565b60405180910390f35b34801561030957600080fd5b50610312610f62565b60405161031f9190611667565b60405180910390f35b34801561033457600080fd5b5061033d610f68565b60405161034a9190611667565b60405180910390f35b34801561035f57600080fd5b50610368610f75565b6040516103759190611667565b60405180910390f35b34801561038a57600080fd5b506103a560048036038101906103a09190611960565b610f7b565b6040516103b29190611667565b60405180910390f35b3480156103c757600080fd5b506103e260048036038101906103dd9190611aee565b610f93565b005b3480156103f057600080fd5b506103f9611169565b6040516104069190611c1b565b60405180910390f35b6104176111f7565b005b60035481565b6000805461042c90611c6c565b80601f016020809104026020016040519081016040528092919081815260200182805461045890611c6c565b80156104a55780601f1061047a576101008083540402835291602001916104a5565b820191906000526020600020905b81548152906001019060200180831161048857829003601f168201915b505050505081565b6060806000806000806000806001600260009054906101000a900473ffffffffffffffffffffffffffffffffffffffff16600354600454600554478680546104f490611c6c565b80601f016020809104026020016040519081016040528092919081815260200182805461052090611c6c565b801561056d5780601f106105425761010080835404028352916020019161056d565b820191906000526020600020905b81548152906001019060200180831161055057829003601f168201915b5050505050965085805461058090611c6c565b80601f01602080910402602001604051908101604052809291908181526020018280546105ac90611c6c565b80156105f95780601f106105ce576101008083540402835291602001916105f9565b820191906000526020600020905b8154815290600101906020018083116105dc57829003601f168201915b50505050509550965096509650965096509650965090919293949596565b600454471061065b576040517f08c379a000000000000000000000000000000000000000000000000000000000815260040161065290611ce9565b60405180910390fd5b600554421161069f576040517f08c379a000000000000000000000000000000000000000000000000000000000815260040161069690611d55565b60405180910390fd5b6000600960003373ffffffffffffffffffffffffffffffffffffffff1673ffffffffffffffffffffffffffffffffffffffff1681526020019081526020016000205490506000600960003373ffffffffffffffffffffffffffffffffffffffff1673ffffffffffffffffffffffffffffffffffffffff1681526020019081526020016000208190555060003373ffffffffffffffffffffffffffffffffffffffff168260405161074e90611da6565b60006040518083038185875af1925050503d806000811461078b576040519150601f19603f3d011682016040523d82523d6000602084013e610790565b606091505b50509050806107d4576040517f08c379a00000000000000000000000000000000000000000000000000000000081526004016107cb90611e07565b60405180910390fd5b6107dd336113c3565b61081c576040517f08c379a000000000000000000000000000000000000000000000000000000000815260040161081390611e73565b60405180910390fd5b7f56c54ba9bd38d8fd62012e42c7ee564519b09763c426d331b3661b537ead19b233833060405161084f93929190611e93565b60405180910390a15050565b60055481565b60006007600083815260200190815260200160002090506000600960003373ffffffffffffffffffffffffffffffffffffffff1673ffffffffffffffffffffffffffffffffffffffff16815260200190815260200160002054116108fa576040517f08c379a00000000000000000000000000000000000000000000000000000000081526004016108f190611f16565b60405180910390fd5b8060040160003373ffffffffffffffffffffffffffffffffffffffff1673ffffffffffffffffffffffffffffffffffffffff16815260200190815260200160002060009054906101000a900460ff1615610989576040517f08c379a000000000000000000000000000000000000000000000000000000000815260040161098090611f82565b60405180910390fd5b8060020160149054906101000a900460ff16156109db576040517f08c379a00000000000000000000000000000000000000000000000000000000081526004016109d290612014565b60405180910390fd5b60018160040160003373ffffffffffffffffffffffffffffffffffffffff1673ffffffffffffffffffffffffffffffffffffffff16815260200190815260200160002060006101000a81548160ff021916908315150217905550806003016000815480929190610a4a90612063565b91905055507fbd0c6d079dd0d4b2c90a91c167efa5aab19f9cc7fb73a6e50f8c6ff2b124386b823330604051610a82939291906120ab565b60405180910390a15050565b600260009054906101000a900473ffffffffffffffffffffffffffffffffffffffff1673ffffffffffffffffffffffffffffffffffffffff163373ffffffffffffffffffffffffffffffffffffffff1614610b1e576040517f08c379a0000000000000000000000000000000000000000000000000000000008152600401610b159061212e565b60405180910390fd5b60006007600083815260200190815260200160002090506002600880549050610b47919061217d565b816003015411610b8c576040517f08c379a0000000000000000000000000000000000000000000000000000000008152600401610b83906121fa565b60405180910390fd5b8060020160149054906101000a900460ff1615610bde576040517f08c379a0000000000000000000000000000000000000000000000000000000008152600401610bd590612266565b60405180910390fd5b4781600001541115610c25576040517f08c379a0000000000000000000000000000000000000000000000000000000008152600401610c1c906122d2565b60405180910390fd5b60008160020160009054906101000a900473ffffffffffffffffffffffffffffffffffffffff1673ffffffffffffffffffffffffffffffffffffffff168260000154604051610c7390611da6565b60006040518083038185875af1925050503d8060008114610cb0576040519150601f19603f3d011682016040523d82523d6000602084013e610cb5565b606091505b5050905080610cf9576040517f08c379a0000000000000000000000000000000000000000000000000000000008152600401610cf090611e07565b60405180910390fd5b60018260020160146101000a81548160ff0219169083151502179055507f4abb44eb76dfd31060bf65acbf876948851c85e3636d5a8e6b80fc458f41de9e8330604051610d479291906122f2565b60405180910390a1505050565b60018054610d6190611c6c565b80601f0160208091040260200160405190810160405280929190818152602001828054610d8d90611c6c565b8015610dda5780601f10610daf57610100808354040283529160200191610dda565b820191906000526020600020905b815481529060010190602001808311610dbd57829003601f168201915b505050505081565b6007602052806000526040600020600091509050806000015490806001018054610e0b90611c6c565b80601f0160208091040260200160405190810160405280929190818152602001828054610e3790611c6c565b8015610e845780601f10610e5957610100808354040283529160200191610e84565b820191906000526020600020905b815481529060010190602001808311610e6757829003601f168201915b5050505050908060020160009054906101000a900473ffffffffffffffffffffffffffffffffffffffff16908060020160149054906101000a900460ff16908060030154905085565b6000806007600084815260200190815260200160002090508060040160003373ffffffffffffffffffffffffffffffffffffffff1673ffffffffffffffffffffffffffffffffffffffff16815260200190815260200160002060009054906101000a900460ff16915050919050565b600260009054906101000a900473ffffffffffffffffffffffffffffffffffffffff1681565b60045481565b6000600880549050905090565b60065481565b60096020528060005260406000206000915090505481565b600260009054906101000a900473ffffffffffffffffffffffffffffffffffffffff1673ffffffffffffffffffffffffffffffffffffffff163373ffffffffffffffffffffffffffffffffffffffff1614611023576040517f08c379a000000000000000000000000000000000000000000000000000000000815260040161101a9061212e565b60405180910390fd5b600454471015611068576040517f08c379a000000000000000000000000000000000000000000000000000000000815260040161105f90612367565b60405180910390fd5b6000600760006006600081548092919061108190612063565b9190505581526020019081526020016000209050838160000181905550828160010190805190602001906110b69291906115ab565b50818160020160006101000a81548173ffffffffffffffffffffffffffffffffffffffff021916908373ffffffffffffffffffffffffffffffffffffffff16021790555060008160020160146101000a81548160ff021916908315150217905550600081600301819055507f16b2a5a8e687468ae970340b39ccf397708b54cbbf52720250a5fbe86bfb77238484846000803060405161115b96959493929190612421565b60405180910390a150505050565b606060088054806020026020016040519081016040528092919081815260200182805480156111ed57602002820191906000526020600020905b8160009054906101000a900473ffffffffffffffffffffffffffffffffffffffff1673ffffffffffffffffffffffffffffffffffffffff16815260200190600101908083116111a3575b5050505050905090565b60035434101561123c576040517f08c379a0000000000000000000000000000000000000000000000000000000008152600401611233906124d5565b60405180910390fd5b6000600960003373ffffffffffffffffffffffffffffffffffffffff1673ffffffffffffffffffffffffffffffffffffffff168152602001908152602001600020540361132f576008339080600181540180825580915050600190039060005260206000200160009091909190916101000a81548173ffffffffffffffffffffffffffffffffffffffff021916908373ffffffffffffffffffffffffffffffffffffffff16021790555034600960003373ffffffffffffffffffffffffffffffffffffffff1673ffffffffffffffffffffffffffffffffffffffff16815260200190815260200160002081905550611386565b34600960003373ffffffffffffffffffffffffffffffffffffffff1673ffffffffffffffffffffffffffffffffffffffff168152602001908152602001600020600082825461137e91906124f5565b925050819055505b7f848d298176c66ffe9f09873369ea879f536e6088040405ef12e550c0949f17e23334306040516113b993929190611e93565b60405180910390a1565b60008060009050600080600090505b60088054905081101561146f578473ffffffffffffffffffffffffffffffffffffffff166008828154811061140a5761140961254b565b5b9060005260206000200160009054906101000a900473ffffffffffffffffffffffffffffffffffffffff1673ffffffffffffffffffffffffffffffffffffffff160361145c578091506001925061146f565b808061146790612063565b9150506113d2565b508161147f5781925050506115a6565b60008190505b6001600880549050611497919061257a565b8110156115585760086001826114ad91906124f5565b815481106114be576114bd61254b565b5b9060005260206000200160009054906101000a900473ffffffffffffffffffffffffffffffffffffffff16600882815481106114fd576114fc61254b565b5b9060005260206000200160006101000a81548173ffffffffffffffffffffffffffffffffffffffff021916908373ffffffffffffffffffffffffffffffffffffffff160217905550808061155090612063565b915050611485565b50600880548061156b5761156a6125ae565b5b6001900381819060005260206000200160006101000a81549073ffffffffffffffffffffffffffffffffffffffff0219169055905581925050505b919050565b8280546115b790611c6c565b90600052602060002090601f0160209004810192826115d95760008555611620565b82601f106115f257805160ff1916838001178555611620565b82800160010185558215611620579182015b8281111561161f578251825591602001919060010190611604565b5b50905061162d9190611631565b5090565b5b8082111561164a576000816000905550600101611632565b5090565b6000819050919050565b6116618161164e565b82525050565b600060208201905061167c6000830184611658565b92915050565b600081519050919050565b600082825260208201905092915050565b60005b838110156116bc5780820151818401526020810190506116a1565b838111156116cb576000848401525b50505050565b6000601f19601f8301169050919050565b60006116ed82611682565b6116f7818561168d565b935061170781856020860161169e565b611710816116d1565b840191505092915050565b6000602082019050818103600083015261173581846116e2565b905092915050565b600073ffffffffffffffffffffffffffffffffffffffff82169050919050565b60006117688261173d565b9050919050565b6117788161175d565b82525050565b600060e0820190508181036000830152611798818a6116e2565b905081810360208301526117ac81896116e2565b90506117bb604083018861176f565b6117c86060830187611658565b6117d56080830186611658565b6117e260a0830185611658565b6117ef60c0830184611658565b98975050505050505050565b6000604051905090565b600080fd5b600080fd5b6118188161164e565b811461182357600080fd5b50565b6000813590506118358161180f565b92915050565b60006020828403121561185157611850611805565b5b600061185f84828501611826565b91505092915050565b60006118738261173d565b9050919050565b61188381611868565b82525050565b60008115159050919050565b61189e81611889565b82525050565b600060a0820190506118b96000830188611658565b81810360208301526118cb81876116e2565b90506118da604083018661187a565b6118e76060830185611895565b6118f46080830184611658565b9695505050505050565b60006020820190506119136000830184611895565b92915050565b600060208201905061192e600083018461176f565b92915050565b61193d8161175d565b811461194857600080fd5b50565b60008135905061195a81611934565b92915050565b60006020828403121561197657611975611805565b5b60006119848482850161194b565b91505092915050565b600080fd5b600080fd5b7f4e487b7100000000000000000000000000000000000000000000000000000000600052604160045260246000fd5b6119cf826116d1565b810181811067ffffffffffffffff821117156119ee576119ed611997565b5b80604052505050565b6000611a016117fb565b9050611a0d82826119c6565b919050565b600067ffffffffffffffff821115611a2d57611a2c611997565b5b611a36826116d1565b9050602081019050919050565b82818337600083830152505050565b6000611a65611a6084611a12565b6119f7565b905082815260208101848484011115611a8157611a80611992565b5b611a8c848285611a43565b509392505050565b600082601f830112611aa957611aa861198d565b5b8135611ab9848260208601611a52565b91505092915050565b611acb81611868565b8114611ad657600080fd5b50565b600081359050611ae881611ac2565b92915050565b600080600060608486031215611b0757611b06611805565b5b6000611b1586828701611826565b935050602084013567ffffffffffffffff811115611b3657611b3561180a565b5b611b4286828701611a94565b9250506040611b5386828701611ad9565b9150509250925092565b600081519050919050565b600082825260208201905092915050565b6000819050602082019050919050565b611b928161175d565b82525050565b6000611ba48383611b89565b60208301905092915050565b6000602082019050919050565b6000611bc882611b5d565b611bd28185611b68565b9350611bdd83611b79565b8060005b83811015611c0e578151611bf58882611b98565b9750611c0083611bb0565b925050600181019050611be1565b5085935050505092915050565b60006020820190508181036000830152611c358184611bbd565b905092915050565b7f4e487b7100000000000000000000000000000000000000000000000000000000600052602260045260246000fd5b60006002820490506001821680611c8457607f821691505b602082108103611c9757611c96611c3d565b5b50919050565b7f476f616c20686173206265656e20616368696576656400000000000000000000600082015250565b6000611cd360168361168d565b9150611cde82611c9d565b602082019050919050565b60006020820190508181036000830152611d0281611cc6565b9050919050565b7f4e6f74206d65742066696e697368696e672074696d6500000000000000000000600082015250565b6000611d3f60168361168d565b9150611d4a82611d09565b602082019050919050565b60006020820190508181036000830152611d6e81611d32565b9050919050565b600081905092915050565b50565b6000611d90600083611d75565b9150611d9b82611d80565b600082019050919050565b6000611db182611d83565b9150819050919050565b7f5472616e73666572206661696c65642e00000000000000000000000000000000600082015250565b6000611df160108361168d565b9150611dfc82611dbb565b602082019050919050565b60006020820190508181036000830152611e2081611de4565b9050919050565b7f4469746368696e67206f6666207468652061646472657373206661696c656400600082015250565b6000611e5d601f8361168d565b9150611e6882611e27565b602082019050919050565b60006020820190508181036000830152611e8c81611e50565b9050919050565b6000606082019050611ea8600083018661176f565b611eb56020830185611658565b611ec2604083018461176f565b949350505050565b7f4e6f7420616e20696e766573746f720000000000000000000000000000000000600082015250565b6000611f00600f8361168d565b9150611f0b82611eca565b602082019050919050565b60006020820190508181036000830152611f2f81611ef3565b9050919050565b7f48617320616c726561647920676976656e2063726564697420666f7200000000600082015250565b6000611f6c601c8361168d565b9150611f7782611f36565b602082019050919050565b60006020820190508181036000830152611f9b81611f5f565b9050919050565b7f526571756573742068617320616c7265616479206265656e206163637265646960008201527f7465640000000000000000000000000000000000000000000000000000000000602082015250565b6000611ffe60238361168d565b915061200982611fa2565b604082019050919050565b6000602082019050818103600083015261202d81611ff1565b9050919050565b7f4e487b7100000000000000000000000000000000000000000000000000000000600052601160045260246000fd5b600061206e8261164e565b91507fffffffffffffffffffffffffffffffffffffffffffffffffffffffffffffffff82036120a05761209f612034565b5b600182019050919050565b60006060820190506120c06000830186611658565b6120cd602083018561176f565b6120da604083018461176f565b949350505050565b7f53656e646572206e6f7420617574686f72697a65642e00000000000000000000600082015250565b600061211860168361168d565b9150612123826120e2565b602082019050919050565b600060208201905081810360008301526121478161210b565b9050919050565b7f4e487b7100000000000000000000000000000000000000000000000000000000600052601260045260246000fd5b60006121888261164e565b91506121938361164e565b9250826121a3576121a261214e565b5b828204905092915050565b7f4e6f7420656e6f75676820766f74657300000000000000000000000000000000600082015250565b60006121e460108361168d565b91506121ef826121ae565b602082019050919050565b60006020820190508181036000830152612213816121d7565b9050919050565b7f486173206265656e20646f6e6500000000000000000000000000000000000000600082015250565b6000612250600d8361168d565b915061225b8261221a565b602082019050919050565b6000602082019050818103600083015261227f81612243565b9050919050565b7f496e76616c696420616d6f756e74000000000000000000000000000000000000600082015250565b60006122bc600e8361168d565b91506122c782612286565b602082019050919050565b600060208201905081810360008301526122eb816122af565b9050919050565b60006040820190506123076000830185611658565b612314602083018461176f565b9392505050565b7f4e6f74206d657420676f616c207965742e000000000000000000000000000000600082015250565b600061235160118361168d565b915061235c8261231b565b602082019050919050565b6000602082019050818103600083015261238081612344565b9050919050565b6000819050919050565b60006123ac6123a76123a28461173d565b612387565b61173d565b9050919050565b60006123be82612391565b9050919050565b60006123d0826123b3565b9050919050565b6123e0816123c5565b82525050565b6000819050919050565b600061240b612406612401846123e6565b612387565b61164e565b9050919050565b61241b816123f0565b82525050565b600060c0820190506124366000830189611658565b818103602083015261244881886116e2565b905061245760408301876123d7565b6124646060830186611895565b6124716080830185612412565b61247e60a083018461176f565b979650505050505050565b7f496e73756666696369656e7420616d6f756e7400000000000000000000000000600082015250565b60006124bf60138361168d565b91506124ca82612489565b602082019050919050565b600060208201905081810360008301526124ee816124b2565b9050919050565b60006125008261164e565b915061250b8361164e565b9250827fffffffffffffffffffffffffffffffffffffffffffffffffffffffffffffffff038211156125405761253f612034565b5b828201905092915050565b7f4e487b7100000000000000000000000000000000000000000000000000000000600052603260045260246000fd5b60006125858261164e565b91506125908361164e565b9250828210156125a3576125a2612034565b5b828203905092915050565b7f4e487b7100000000000000000000000000000000000000000000000000000000600052603160045260246000fdfea2646970667358221220856e645ecc79cb43067384de2de340a989c86ba2ce85118471d4901a53b711ad64736f6c634300080e0033",
  "immutableReferences": {},
  "source": "// SPDX-License-Identifier: MIT\r\npragma solidity >=0.8.14;\r\n\r\ncontract Project {\r\n    struct Request {\r\n        uint256 amount;\r\n        string description;\r\n        address payable recipient;\r\n        bool isDone;\r\n        uint256 accreditCount;\r\n        mapping(address => bool) investorsAccredited;\r\n    }\r\n\r\n    string public name;\r\n    string public description;\r\n    address public owner;\r\n    uint256 public minAmout;\r\n    uint256 public targetAmount;\r\n    uint256 public finishTime;\r\n\r\n    uint256 public reqIndex;\r\n    mapping(uint256 => Request) public requests;\r\n\r\n    address[] investorsAddress;\r\n    mapping(address => uint256) public investorsAmount;\r\n\r\n    modifier onlyOwner() {\r\n        require(msg.sender == owner, \"Sender not authorized.\");\r\n        _;\r\n    }\r\n\r\n    event Contribute(\r\n        address contributor,\r\n        uint256 amount,\r\n        address projectAddress\r\n    );\r\n    event CreateRequest(\r\n        uint256 amount,\r\n        string description,\r\n        address recipient,\r\n        bool isDone,\r\n        uint256 accreditCount,\r\n        address projectAddress\r\n    );\r\n    event AccreditRequest(\r\n        uint256 index,\r\n        address investor,\r\n        address projectAddress\r\n    );\r\n    event ResolveRequest(uint256 index, address projectAddress);\r\n    event Withdraw(address investor, uint256 amount, address projectAddress);\r\n\r\n    constructor(\r\n        string memory projectName,\r\n        string memory des,\r\n        address creator,\r\n        uint256 min,\r\n        uint256 target,\r\n        uint256 finish\r\n    ) {\r\n        name = projectName;\r\n        description = des;\r\n        owner = creator;\r\n        minAmout = min;\r\n        targetAmount = target;\r\n        finishTime = finish;\r\n        reqIndex = 0;\r\n    }\r\n\r\n    function contribute() public payable {\r\n        require(msg.value >= minAmout, \"Insufficient amount\");\r\n\r\n        if (investorsAmount[msg.sender] == 0) {\r\n            investorsAddress.push(msg.sender);\r\n            investorsAmount[msg.sender] = msg.value;\r\n        } else {\r\n            investorsAmount[msg.sender] += msg.value;\r\n        }\r\n\r\n        emit Contribute(msg.sender, msg.value, address(this));\r\n    }\r\n\r\n    function createRequest(\r\n        uint256 amount,\r\n        string memory desc,\r\n        address payable recipient\r\n    ) public onlyOwner {\r\n        require(address(this).balance >= targetAmount, \"Not met goal yet.\");\r\n\r\n        Request storage newReq = requests[reqIndex++];\r\n        newReq.amount = amount;\r\n        newReq.description = desc;\r\n        newReq.recipient = recipient;\r\n        newReq.isDone = false;\r\n        newReq.accreditCount = 0;\r\n        emit CreateRequest(amount, desc, recipient, false, 0, address(this));\r\n    }\r\n\r\n    function accreditRequest(uint256 ind) public {\r\n        Request storage request = requests[ind];\r\n\r\n        require(investorsAmount[msg.sender] > 0, \"Not an investor\");\r\n        require(\r\n            !request.investorsAccredited[msg.sender],\r\n            \"Has already given credit for\"\r\n        );\r\n        require(!request.isDone, \"Request has already been accredited\");\r\n\r\n        request.investorsAccredited[msg.sender] = true;\r\n        request.accreditCount++;\r\n        emit AccreditRequest(ind, msg.sender, address(this));\r\n    }\r\n\r\n    function resolveRequest(uint256 ind) external onlyOwner {\r\n        Request storage request = requests[ind];\r\n\r\n        require(\r\n            request.accreditCount > (investorsAddress.length / 2),\r\n            \"Not enough votes\"\r\n        );\r\n        require(!request.isDone, \"Has been done\");\r\n\r\n        require(request.amount <= address(this).balance, \"Invalid amount\");\r\n        (bool ok, ) = request.recipient.call{value: request.amount}(\"\");\r\n        require(ok, \"Transfer failed.\");\r\n        request.isDone = true;\r\n        emit ResolveRequest(ind, address(this));\r\n    }\r\n\r\n    function removeInvestorAddress(address inv) internal returns (bool) {\r\n        bool found = false;\r\n        uint256 pos;\r\n        for (uint256 i = 0; i < investorsAddress.length; i++) {\r\n            if (investorsAddress[i] == inv) {\r\n                pos = i;\r\n                found = true;\r\n                break;\r\n            }\r\n        }\r\n        if (!found) return found;\r\n\r\n        for (uint256 i = pos; i < investorsAddress.length - 1; i++) {\r\n            investorsAddress[i] = investorsAddress[i + 1];\r\n        }\r\n        investorsAddress.pop();\r\n        return found;\r\n    }\r\n\r\n    function withdraw() external {\r\n        require(address(this).balance < targetAmount, \"Goal has been achieved\");\r\n        require(block.timestamp > finishTime, \"Not met finishing time\");\r\n\r\n        uint256 amountToWithdraw = investorsAmount[msg.sender];\r\n        investorsAmount[msg.sender] = 0;\r\n        (bool ok, ) = msg.sender.call{value: amountToWithdraw}(\"\");\r\n        require(ok, \"Transfer failed.\");\r\n        require(\r\n            removeInvestorAddress(msg.sender),\r\n            \"Ditching off the address failed\"\r\n        );\r\n        emit Withdraw(msg.sender, amountToWithdraw, address(this));\r\n    }\r\n\r\n    function getIsAccreditedRequest(uint256 ind) external view returns (bool) {\r\n        Request storage req = requests[ind];\r\n        return req.investorsAccredited[msg.sender];\r\n    }\r\n\r\n    function info()\r\n        public\r\n        view\r\n        returns (\r\n            string memory,\r\n            string memory,\r\n            address,\r\n            uint256,\r\n            uint256,\r\n            uint256,\r\n            uint256\r\n        )\r\n    {\r\n        return (\r\n            name,\r\n            description,\r\n            owner,\r\n            minAmout,\r\n            targetAmount,\r\n            finishTime,\r\n            address(this).balance\r\n        );\r\n    }\r\n\r\n    function getInvestors() external view returns (uint256) {\r\n        return investorsAddress.length;\r\n    }\r\n\r\n    function getInvestorsAddress() external view returns (address[] memory) {\r\n        return investorsAddress;\r\n    }\r\n}\r\n",
  "sourcePath": "C:\\work\\crowdfunding\\contracts\\Project.sol",
  "compiler": {
    "name": "solc",
    "version": "0.8.14+commit.80d49f37.Emscripten.clang"
  },
  "schemaVersion": "3.4.7",
  "updatedAt": "2022-06-20T04:06:29.287Z",
  "networkType": "ethereum",
  "devdoc": {
    "kind": "dev",
    "methods": {},
    "version": 1
  },
  "userdoc": {
    "kind": "user",
    "methods": {},
    "version": 1
  }
}