{
  "contractName": "Project",
  "abi": [
    {
      "inputs": [
        {
          "internalType": "string",
          "name": "projectName",
          "type": "string"
        },
        {
          "internalType": "string",
          "name": "des",
          "type": "string"
        },
        {
          "internalType": "address",
          "name": "creator",
          "type": "address"
        },
        {
          "internalType": "uint256",
          "name": "min",
          "type": "uint256"
        },
        {
          "internalType": "uint256",
          "name": "target",
          "type": "uint256"
        },
        {
          "internalType": "uint256",
          "name": "finish",
          "type": "uint256"
        }
      ],
      "stateMutability": "nonpayable",
      "type": "constructor"
    },
    {
      "anonymous": false,
      "inputs": [
        {
          "indexed": false,
          "internalType": "address",
          "name": "contributor",
          "type": "address"
        },
        {
          "indexed": false,
          "internalType": "uint256",
          "name": "amount",
          "type": "uint256"
        }
      ],
      "name": "Contribute",
      "type": "event"
    },
    {
      "inputs": [],
      "name": "description",
      "outputs": [
        {
          "internalType": "string",
          "name": "",
          "type": "string"
        }
      ],
      "stateMutability": "view",
      "type": "function",
      "constant": true
    },
    {
      "inputs": [],
      "name": "finishTime",
      "outputs": [
        {
          "internalType": "uint256",
          "name": "",
          "type": "uint256"
        }
      ],
      "stateMutability": "view",
      "type": "function",
      "constant": true
    },
    {
      "inputs": [
        {
          "internalType": "address",
          "name": "",
          "type": "address"
        }
      ],
      "name": "investorsAmount",
      "outputs": [
        {
          "internalType": "uint256",
          "name": "",
          "type": "uint256"
        }
      ],
      "stateMutability": "view",
      "type": "function",
      "constant": true
    },
    {
      "inputs": [],
      "name": "minAmout",
      "outputs": [
        {
          "internalType": "uint256",
          "name": "",
          "type": "uint256"
        }
      ],
      "stateMutability": "view",
      "type": "function",
      "constant": true
    },
    {
      "inputs": [],
      "name": "name",
      "outputs": [
        {
          "internalType": "string",
          "name": "",
          "type": "string"
        }
      ],
      "stateMutability": "view",
      "type": "function",
      "constant": true
    },
    {
      "inputs": [],
      "name": "owner",
      "outputs": [
        {
          "internalType": "address",
          "name": "",
          "type": "address"
        }
      ],
      "stateMutability": "view",
      "type": "function",
      "constant": true
    },
    {
      "inputs": [],
      "name": "reqIndex",
      "outputs": [
        {
          "internalType": "uint256",
          "name": "",
          "type": "uint256"
        }
      ],
      "stateMutability": "view",
      "type": "function",
      "constant": true
    },
    {
      "inputs": [
        {
          "internalType": "uint256",
          "name": "",
          "type": "uint256"
        }
      ],
      "name": "requests",
      "outputs": [
        {
          "internalType": "uint256",
          "name": "amount",
          "type": "uint256"
        },
        {
          "internalType": "string",
          "name": "description",
          "type": "string"
        },
        {
          "internalType": "address payable",
          "name": "recipient",
          "type": "address"
        },
        {
          "internalType": "bool",
          "name": "isDone",
          "type": "bool"
        },
        {
          "internalType": "uint256",
          "name": "accreditCount",
          "type": "uint256"
        }
      ],
      "stateMutability": "view",
      "type": "function",
      "constant": true
    },
    {
      "inputs": [],
      "name": "targetAmount",
      "outputs": [
        {
          "internalType": "uint256",
          "name": "",
          "type": "uint256"
        }
      ],
      "stateMutability": "view",
      "type": "function",
      "constant": true
    },
    {
      "inputs": [],
      "name": "contribute",
      "outputs": [],
      "stateMutability": "payable",
      "type": "function",
      "payable": true
    },
    {
      "inputs": [
        {
          "internalType": "uint256",
          "name": "amount",
          "type": "uint256"
        },
        {
          "internalType": "string",
          "name": "desc",
          "type": "string"
        },
        {
          "internalType": "address payable",
          "name": "recipient",
          "type": "address"
        }
      ],
      "name": "createRequest",
      "outputs": [],
      "stateMutability": "nonpayable",
      "type": "function"
    },
    {
      "inputs": [
        {
          "internalType": "uint256",
          "name": "ind",
          "type": "uint256"
        }
      ],
      "name": "accreditRequest",
      "outputs": [],
      "stateMutability": "nonpayable",
      "type": "function"
    },
    {
      "inputs": [
        {
          "internalType": "uint256",
          "name": "ind",
          "type": "uint256"
        }
      ],
      "name": "resolveRequest",
      "outputs": [],
      "stateMutability": "nonpayable",
      "type": "function"
    },
    {
      "inputs": [],
      "name": "withdraw",
      "outputs": [],
      "stateMutability": "nonpayable",
      "type": "function"
    },
    {
      "inputs": [
        {
          "internalType": "uint256",
          "name": "ind",
          "type": "uint256"
        }
      ],
      "name": "getIsAccreditedRequest",
      "outputs": [
        {
          "internalType": "bool",
          "name": "",
          "type": "bool"
        }
      ],
      "stateMutability": "view",
      "type": "function",
      "constant": true
    },
    {
      "inputs": [],
      "name": "info",
      "outputs": [
        {
          "internalType": "string",
          "name": "",
          "type": "string"
        },
        {
          "internalType": "string",
          "name": "",
          "type": "string"
        },
        {
          "internalType": "address",
          "name": "",
          "type": "address"
        },
        {
          "internalType": "uint256",
          "name": "",
          "type": "uint256"
        },
        {
          "internalType": "uint256",
          "name": "",
          "type": "uint256"
        },
        {
          "internalType": "uint256",
          "name": "",
          "type": "uint256"
        },
        {
          "internalType": "uint256",
          "name": "",
          "type": "uint256"
        }
      ],
      "stateMutability": "view",
      "type": "function",
      "constant": true
    },
    {
      "inputs": [],
      "name": "getInvestors",
      "outputs": [
        {
          "internalType": "uint256",
          "name": "",
          "type": "uint256"
        }
      ],
      "stateMutability": "view",
      "type": "function",
      "constant": true
    },
    {
      "inputs": [],
      "name": "getInvestorsAddress",
      "outputs": [
        {
          "internalType": "address[]",
          "name": "",
          "type": "address[]"
        }
      ],
      "stateMutability": "view",
      "type": "function",
      "constant": true
    }
  ],
  "bytecode": "0x60806040523480156200001157600080fd5b50604051620028be380380620028be8339818101604052810190620000379190620003c0565b85600090805190602001906200004f929190620000d3565b50846001908051906020019062000068929190620000d3565b5083600260006101000a81548173ffffffffffffffffffffffffffffffffffffffff021916908373ffffffffffffffffffffffffffffffffffffffff1602179055508260038190555081600481905550806005819055506000600681905550505050505050620004fe565b828054620000e190620004c9565b90600052602060002090601f01602090048101928262000105576000855562000151565b82601f106200012057805160ff191683800117855562000151565b8280016001018555821562000151579182015b828111156200015057825182559160200191906001019062000133565b5b50905062000160919062000164565b5090565b5b808211156200017f57600081600090555060010162000165565b5090565b6000604051905090565b600080fd5b600080fd5b600080fd5b600080fd5b6000601f19601f8301169050919050565b7f4e487b7100000000000000000000000000000000000000000000000000000000600052604160045260246000fd5b620001ec82620001a1565b810181811067ffffffffffffffff821117156200020e576200020d620001b2565b5b80604052505050565b60006200022362000183565b9050620002318282620001e1565b919050565b600067ffffffffffffffff821115620002545762000253620001b2565b5b6200025f82620001a1565b9050602081019050919050565b60005b838110156200028c5780820151818401526020810190506200026f565b838111156200029c576000848401525b50505050565b6000620002b9620002b38462000236565b62000217565b905082815260208101848484011115620002d857620002d76200019c565b5b620002e58482856200026c565b509392505050565b600082601f83011262000305576200030462000197565b5b815162000317848260208601620002a2565b91505092915050565b600073ffffffffffffffffffffffffffffffffffffffff82169050919050565b60006200034d8262000320565b9050919050565b6200035f8162000340565b81146200036b57600080fd5b50565b6000815190506200037f8162000354565b92915050565b6000819050919050565b6200039a8162000385565b8114620003a657600080fd5b50565b600081519050620003ba816200038f565b92915050565b60008060008060008060c08789031215620003e057620003df6200018d565b5b600087015167ffffffffffffffff81111562000401576200040062000192565b5b6200040f89828a01620002ed565b965050602087015167ffffffffffffffff81111562000433576200043262000192565b5b6200044189828a01620002ed565b95505060406200045489828a016200036e565b94505060606200046789828a01620003a9565b93505060806200047a89828a01620003a9565b92505060a06200048d89828a01620003a9565b9150509295509295509295565b7f4e487b7100000000000000000000000000000000000000000000000000000000600052602260045260246000fd5b60006002820490506001821680620004e257607f821691505b602082108103620004f857620004f76200049a565b5b50919050565b6123b0806200050e6000396000f3fe6080604052600436106101095760003560e01c80638a92e5a011610095578063b9a4509811610064578063b9a4509814610353578063c426ab4a1461037e578063ce9ac84d146103bb578063d1585a6d146103e4578063d7bb99ba1461040f57610109565b80638a92e5a0146102955780638da5cb5b146102d2578063953b8fb8146102fd578063b2f5a54c1461032857610109565b80635958611e116100dc5780635958611e146101ac5780635ed57ea6146101d757806363cdab61146102005780637284e4161461022957806381d12c581461025457610109565b806304e346671461010e57806306fdde0314610139578063370158ea146101645780633ccfd60b14610195575b600080fd5b34801561011a57600080fd5b50610123610419565b6040516101309190611574565b60405180910390f35b34801561014557600080fd5b5061014e61041f565b60405161015b9190611628565b60405180910390f35b34801561017057600080fd5b506101796104ad565b60405161018c979695949392919061168b565b60405180910390f35b3480156101a157600080fd5b506101aa610617565b005b3480156101b857600080fd5b506101c1610820565b6040516101ce9190611574565b60405180910390f35b3480156101e357600080fd5b506101fe60048036038101906101f99190611748565b610826565b005b34801561020c57600080fd5b5061022760048036038101906102229190611748565b610a18565b005b34801561023557600080fd5b5061023e610ca5565b60405161024b9190611628565b60405180910390f35b34801561026057600080fd5b5061027b60048036038101906102769190611748565b610d33565b60405161028c9594939291906117b1565b60405180910390f35b3480156102a157600080fd5b506102bc60048036038101906102b79190611748565b610e1e565b6040516102c9919061180b565b60405180910390f35b3480156102de57600080fd5b506102e7610e8d565b6040516102f49190611826565b60405180910390f35b34801561030957600080fd5b50610312610eb3565b60405161031f9190611574565b60405180910390f35b34801561033457600080fd5b5061033d610eb9565b60405161034a9190611574565b60405180910390f35b34801561035f57600080fd5b50610368610ec6565b6040516103759190611574565b60405180910390f35b34801561038a57600080fd5b506103a560048036038101906103a0919061186d565b610ecc565b6040516103b29190611574565b60405180910390f35b3480156103c757600080fd5b506103e260048036038101906103dd91906119fb565b610ee4565b005b3480156103f057600080fd5b506103f9611078565b6040516104069190611b28565b60405180910390f35b610417611106565b005b60035481565b6000805461042c90611b79565b80601f016020809104026020016040519081016040528092919081815260200182805461045890611b79565b80156104a55780601f1061047a576101008083540402835291602001916104a5565b820191906000526020600020905b81548152906001019060200180831161048857829003601f168201915b505050505081565b6060806000806000806000806001600260009054906101000a900473ffffffffffffffffffffffffffffffffffffffff16600354600454600554478680546104f490611b79565b80601f016020809104026020016040519081016040528092919081815260200182805461052090611b79565b801561056d5780601f106105425761010080835404028352916020019161056d565b820191906000526020600020905b81548152906001019060200180831161055057829003601f168201915b5050505050965085805461058090611b79565b80601f01602080910402602001604051908101604052809291908181526020018280546105ac90611b79565b80156105f95780601f106105ce576101008083540402835291602001916105f9565b820191906000526020600020905b8154815290600101906020018083116105dc57829003601f168201915b50505050509550965096509650965096509650965090919293949596565b600454471061065b576040517f08c379a000000000000000000000000000000000000000000000000000000000815260040161065290611bf6565b60405180910390fd5b600554421161069f576040517f08c379a000000000000000000000000000000000000000000000000000000000815260040161069690611c62565b60405180910390fd5b6000600960003373ffffffffffffffffffffffffffffffffffffffff1673ffffffffffffffffffffffffffffffffffffffff1681526020019081526020016000205490506000600960003373ffffffffffffffffffffffffffffffffffffffff1673ffffffffffffffffffffffffffffffffffffffff1681526020019081526020016000208190555060003373ffffffffffffffffffffffffffffffffffffffff168260405161074e90611cb3565b60006040518083038185875af1925050503d806000811461078b576040519150601f19603f3d011682016040523d82523d6000602084013e610790565b606091505b50509050806107d4576040517f08c379a00000000000000000000000000000000000000000000000000000000081526004016107cb90611d14565b60405180910390fd5b6107dd336112d0565b61081c576040517f08c379a000000000000000000000000000000000000000000000000000000000815260040161081390611d80565b60405180910390fd5b5050565b60055481565b60006007600083815260200190815260200160002090506000600960003373ffffffffffffffffffffffffffffffffffffffff1673ffffffffffffffffffffffffffffffffffffffff16815260200190815260200160002054116108bf576040517f08c379a00000000000000000000000000000000000000000000000000000000081526004016108b690611dec565b60405180910390fd5b8060040160003373ffffffffffffffffffffffffffffffffffffffff1673ffffffffffffffffffffffffffffffffffffffff16815260200190815260200160002060009054906101000a900460ff161561094e576040517f08c379a000000000000000000000000000000000000000000000000000000000815260040161094590611e58565b60405180910390fd5b8060020160149054906101000a900460ff16156109a0576040517f08c379a000000000000000000000000000000000000000000000000000000000815260040161099790611eea565b60405180910390fd5b60018160040160003373ffffffffffffffffffffffffffffffffffffffff1673ffffffffffffffffffffffffffffffffffffffff16815260200190815260200160002060006101000a81548160ff021916908315150217905550806003016000815480929190610a0f90611f39565b91905055505050565b600260009054906101000a900473ffffffffffffffffffffffffffffffffffffffff1673ffffffffffffffffffffffffffffffffffffffff163373ffffffffffffffffffffffffffffffffffffffff1614610aa8576040517f08c379a0000000000000000000000000000000000000000000000000000000008152600401610a9f90611fcd565b60405180910390fd5b60006007600083815260200190815260200160002090506002600880549050610ad1919061201c565b816003015411610b16576040517f08c379a0000000000000000000000000000000000000000000000000000000008152600401610b0d90612099565b60405180910390fd5b8060020160149054906101000a900460ff1615610b68576040517f08c379a0000000000000000000000000000000000000000000000000000000008152600401610b5f90612105565b60405180910390fd5b4781600001541115610baf576040517f08c379a0000000000000000000000000000000000000000000000000000000008152600401610ba690612171565b60405180910390fd5b60008160020160009054906101000a900473ffffffffffffffffffffffffffffffffffffffff1673ffffffffffffffffffffffffffffffffffffffff168260000154604051610bfd90611cb3565b60006040518083038185875af1925050503d8060008114610c3a576040519150601f19603f3d011682016040523d82523d6000602084013e610c3f565b606091505b5050905080610c83576040517f08c379a0000000000000000000000000000000000000000000000000000000008152600401610c7a90611d14565b60405180910390fd5b60018260020160146101000a81548160ff021916908315150217905550505050565b60018054610cb290611b79565b80601f0160208091040260200160405190810160405280929190818152602001828054610cde90611b79565b8015610d2b5780601f10610d0057610100808354040283529160200191610d2b565b820191906000526020600020905b815481529060010190602001808311610d0e57829003601f168201915b505050505081565b6007602052806000526040600020600091509050806000015490806001018054610d5c90611b79565b80601f0160208091040260200160405190810160405280929190818152602001828054610d8890611b79565b8015610dd55780601f10610daa57610100808354040283529160200191610dd5565b820191906000526020600020905b815481529060010190602001808311610db857829003601f168201915b5050505050908060020160009054906101000a900473ffffffffffffffffffffffffffffffffffffffff16908060020160149054906101000a900460ff16908060030154905085565b6000806007600084815260200190815260200160002090508060040160003373ffffffffffffffffffffffffffffffffffffffff1673ffffffffffffffffffffffffffffffffffffffff16815260200190815260200160002060009054906101000a900460ff16915050919050565b600260009054906101000a900473ffffffffffffffffffffffffffffffffffffffff1681565b60045481565b6000600880549050905090565b60065481565b60096020528060005260406000206000915090505481565b600260009054906101000a900473ffffffffffffffffffffffffffffffffffffffff1673ffffffffffffffffffffffffffffffffffffffff163373ffffffffffffffffffffffffffffffffffffffff1614610f74576040517f08c379a0000000000000000000000000000000000000000000000000000000008152600401610f6b90611fcd565b60405180910390fd5b600454471015610fb9576040517f08c379a0000000000000000000000000000000000000000000000000000000008152600401610fb0906121dd565b60405180910390fd5b60006007600060066000815480929190610fd290611f39565b9190505581526020019081526020016000209050838160000181905550828160010190805190602001906110079291906114b8565b50818160020160006101000a81548173ffffffffffffffffffffffffffffffffffffffff021916908373ffffffffffffffffffffffffffffffffffffffff16021790555060008160020160146101000a81548160ff0219169083151502179055506000816003018190555050505050565b606060088054806020026020016040519081016040528092919081815260200182805480156110fc57602002820191906000526020600020905b8160009054906101000a900473ffffffffffffffffffffffffffffffffffffffff1673ffffffffffffffffffffffffffffffffffffffff16815260200190600101908083116110b2575b5050505050905090565b60035434101561114b576040517f08c379a000000000000000000000000000000000000000000000000000000000815260040161114290612249565b60405180910390fd5b6000600960003373ffffffffffffffffffffffffffffffffffffffff1673ffffffffffffffffffffffffffffffffffffffff168152602001908152602001600020540361123e576008339080600181540180825580915050600190039060005260206000200160009091909190916101000a81548173ffffffffffffffffffffffffffffffffffffffff021916908373ffffffffffffffffffffffffffffffffffffffff16021790555034600960003373ffffffffffffffffffffffffffffffffffffffff1673ffffffffffffffffffffffffffffffffffffffff16815260200190815260200160002081905550611295565b34600960003373ffffffffffffffffffffffffffffffffffffffff1673ffffffffffffffffffffffffffffffffffffffff168152602001908152602001600020600082825461128d9190612269565b925050819055505b7f906faaf913a60f38b5e8f2d6f5b163239bac2d994fa1a5d21751a51587a9405733346040516112c69291906122bf565b60405180910390a1565b60008060009050600080600090505b60088054905081101561137c578473ffffffffffffffffffffffffffffffffffffffff1660088281548110611317576113166122e8565b5b9060005260206000200160009054906101000a900473ffffffffffffffffffffffffffffffffffffffff1673ffffffffffffffffffffffffffffffffffffffff1603611369578091506001925061137c565b808061137490611f39565b9150506112df565b508161138c5781925050506114b3565b60008190505b60016008805490506113a49190612317565b8110156114655760086001826113ba9190612269565b815481106113cb576113ca6122e8565b5b9060005260206000200160009054906101000a900473ffffffffffffffffffffffffffffffffffffffff166008828154811061140a576114096122e8565b5b9060005260206000200160006101000a81548173ffffffffffffffffffffffffffffffffffffffff021916908373ffffffffffffffffffffffffffffffffffffffff160217905550808061145d90611f39565b915050611392565b5060088054806114785761147761234b565b5b6001900381819060005260206000200160006101000a81549073ffffffffffffffffffffffffffffffffffffffff0219169055905581925050505b919050565b8280546114c490611b79565b90600052602060002090601f0160209004810192826114e6576000855561152d565b82601f106114ff57805160ff191683800117855561152d565b8280016001018555821561152d579182015b8281111561152c578251825591602001919060010190611511565b5b50905061153a919061153e565b5090565b5b8082111561155757600081600090555060010161153f565b5090565b6000819050919050565b61156e8161155b565b82525050565b60006020820190506115896000830184611565565b92915050565b600081519050919050565b600082825260208201905092915050565b60005b838110156115c95780820151818401526020810190506115ae565b838111156115d8576000848401525b50505050565b6000601f19601f8301169050919050565b60006115fa8261158f565b611604818561159a565b93506116148185602086016115ab565b61161d816115de565b840191505092915050565b6000602082019050818103600083015261164281846115ef565b905092915050565b600073ffffffffffffffffffffffffffffffffffffffff82169050919050565b60006116758261164a565b9050919050565b6116858161166a565b82525050565b600060e08201905081810360008301526116a5818a6115ef565b905081810360208301526116b981896115ef565b90506116c8604083018861167c565b6116d56060830187611565565b6116e26080830186611565565b6116ef60a0830185611565565b6116fc60c0830184611565565b98975050505050505050565b6000604051905090565b600080fd5b600080fd5b6117258161155b565b811461173057600080fd5b50565b6000813590506117428161171c565b92915050565b60006020828403121561175e5761175d611712565b5b600061176c84828501611733565b91505092915050565b60006117808261164a565b9050919050565b61179081611775565b82525050565b60008115159050919050565b6117ab81611796565b82525050565b600060a0820190506117c66000830188611565565b81810360208301526117d881876115ef565b90506117e76040830186611787565b6117f460608301856117a2565b6118016080830184611565565b9695505050505050565b600060208201905061182060008301846117a2565b92915050565b600060208201905061183b600083018461167c565b92915050565b61184a8161166a565b811461185557600080fd5b50565b60008135905061186781611841565b92915050565b60006020828403121561188357611882611712565b5b600061189184828501611858565b91505092915050565b600080fd5b600080fd5b7f4e487b7100000000000000000000000000000000000000000000000000000000600052604160045260246000fd5b6118dc826115de565b810181811067ffffffffffffffff821117156118fb576118fa6118a4565b5b80604052505050565b600061190e611708565b905061191a82826118d3565b919050565b600067ffffffffffffffff82111561193a576119396118a4565b5b611943826115de565b9050602081019050919050565b82818337600083830152505050565b600061197261196d8461191f565b611904565b90508281526020810184848401111561198e5761198d61189f565b5b611999848285611950565b509392505050565b600082601f8301126119b6576119b561189a565b5b81356119c684826020860161195f565b91505092915050565b6119d881611775565b81146119e357600080fd5b50565b6000813590506119f5816119cf565b92915050565b600080600060608486031215611a1457611a13611712565b5b6000611a2286828701611733565b935050602084013567ffffffffffffffff811115611a4357611a42611717565b5b611a4f868287016119a1565b9250506040611a60868287016119e6565b9150509250925092565b600081519050919050565b600082825260208201905092915050565b6000819050602082019050919050565b611a9f8161166a565b82525050565b6000611ab18383611a96565b60208301905092915050565b6000602082019050919050565b6000611ad582611a6a565b611adf8185611a75565b9350611aea83611a86565b8060005b83811015611b1b578151611b028882611aa5565b9750611b0d83611abd565b925050600181019050611aee565b5085935050505092915050565b60006020820190508181036000830152611b428184611aca565b905092915050565b7f4e487b7100000000000000000000000000000000000000000000000000000000600052602260045260246000fd5b60006002820490506001821680611b9157607f821691505b602082108103611ba457611ba3611b4a565b5b50919050565b7f476f616c20686173206265656e20616368696576656400000000000000000000600082015250565b6000611be060168361159a565b9150611beb82611baa565b602082019050919050565b60006020820190508181036000830152611c0f81611bd3565b9050919050565b7f4e6f74206d65742066696e697368696e672074696d6500000000000000000000600082015250565b6000611c4c60168361159a565b9150611c5782611c16565b602082019050919050565b60006020820190508181036000830152611c7b81611c3f565b9050919050565b600081905092915050565b50565b6000611c9d600083611c82565b9150611ca882611c8d565b600082019050919050565b6000611cbe82611c90565b9150819050919050565b7f5472616e73666572206661696c65642e00000000000000000000000000000000600082015250565b6000611cfe60108361159a565b9150611d0982611cc8565b602082019050919050565b60006020820190508181036000830152611d2d81611cf1565b9050919050565b7f4469746368696e67206f6666207468652061646472657373206661696c656400600082015250565b6000611d6a601f8361159a565b9150611d7582611d34565b602082019050919050565b60006020820190508181036000830152611d9981611d5d565b9050919050565b7f4e6f7420616e20696e766573746f720000000000000000000000000000000000600082015250565b6000611dd6600f8361159a565b9150611de182611da0565b602082019050919050565b60006020820190508181036000830152611e0581611dc9565b9050919050565b7f48617320616c726561647920676976656e2063726564697420666f7200000000600082015250565b6000611e42601c8361159a565b9150611e4d82611e0c565b602082019050919050565b60006020820190508181036000830152611e7181611e35565b9050919050565b7f526571756573742068617320616c7265616479206265656e206163637265646960008201527f7465640000000000000000000000000000000000000000000000000000000000602082015250565b6000611ed460238361159a565b9150611edf82611e78565b604082019050919050565b60006020820190508181036000830152611f0381611ec7565b9050919050565b7f4e487b7100000000000000000000000000000000000000000000000000000000600052601160045260246000fd5b6000611f448261155b565b91507fffffffffffffffffffffffffffffffffffffffffffffffffffffffffffffffff8203611f7657611f75611f0a565b5b600182019050919050565b7f53656e646572206e6f7420617574686f72697a65642e00000000000000000000600082015250565b6000611fb760168361159a565b9150611fc282611f81565b602082019050919050565b60006020820190508181036000830152611fe681611faa565b9050919050565b7f4e487b7100000000000000000000000000000000000000000000000000000000600052601260045260246000fd5b60006120278261155b565b91506120328361155b565b92508261204257612041611fed565b5b828204905092915050565b7f4e6f7420656e6f75676820766f74657300000000000000000000000000000000600082015250565b600061208360108361159a565b915061208e8261204d565b602082019050919050565b600060208201905081810360008301526120b281612076565b9050919050565b7f486173206265656e20646f6e6500000000000000000000000000000000000000600082015250565b60006120ef600d8361159a565b91506120fa826120b9565b602082019050919050565b6000602082019050818103600083015261211e816120e2565b9050919050565b7f496e76616c696420616d6f756e74000000000000000000000000000000000000600082015250565b600061215b600e8361159a565b915061216682612125565b602082019050919050565b6000602082019050818103600083015261218a8161214e565b9050919050565b7f4e6f74206d657420676f616c207965742e000000000000000000000000000000600082015250565b60006121c760118361159a565b91506121d282612191565b602082019050919050565b600060208201905081810360008301526121f6816121ba565b9050919050565b7f496e73756666696369656e7420616d6f756e7400000000000000000000000000600082015250565b600061223360138361159a565b915061223e826121fd565b602082019050919050565b6000602082019050818103600083015261226281612226565b9050919050565b60006122748261155b565b915061227f8361155b565b9250827fffffffffffffffffffffffffffffffffffffffffffffffffffffffffffffffff038211156122b4576122b3611f0a565b5b828201905092915050565b60006040820190506122d4600083018561167c565b6122e16020830184611565565b9392505050565b7f4e487b7100000000000000000000000000000000000000000000000000000000600052603260045260246000fd5b60006123228261155b565b915061232d8361155b565b9250828210156123405761233f611f0a565b5b828203905092915050565b7f4e487b7100000000000000000000000000000000000000000000000000000000600052603160045260246000fdfea264697066735822122019e86dee5a792f0219e7c934a8bb3715c169fbc3bd097e01159bf4ab46a72b4264736f6c634300080e0033",
  "immutableReferences": {},
  "source": "// SPDX-License-Identifier: MIT\r\npragma solidity >=0.8.14;\r\n\r\ncontract Project {\r\n    struct Request {\r\n        uint256 amount;\r\n        string description;\r\n        address payable recipient;\r\n        bool isDone;\r\n        uint256 accreditCount;\r\n        mapping(address => bool) investorsAccredited;\r\n    }\r\n\r\n    string public name;\r\n    string public description;\r\n    address public owner;\r\n    uint256 public minAmout;\r\n    uint256 public targetAmount;\r\n    uint256 public finishTime;\r\n\r\n    uint256 public reqIndex;\r\n    mapping(uint256 => Request) public requests;\r\n\r\n    address[] investorsAddress;\r\n    mapping(address => uint256) public investorsAmount;\r\n\r\n    modifier onlyOwner() {\r\n        require(msg.sender == owner, \"Sender not authorized.\");\r\n        _;\r\n    }\r\n\r\n    event Contribute(address contributor, uint256 amount);\r\n\r\n    constructor(\r\n        string memory projectName,\r\n        string memory des,\r\n        address creator,\r\n        uint256 min,\r\n        uint256 target,\r\n        uint256 finish\r\n    ) {\r\n        name = projectName;\r\n        description = des;\r\n        owner = creator;\r\n        minAmout = min;\r\n        targetAmount = target;\r\n        finishTime = finish;\r\n        reqIndex = 0;\r\n    }\r\n\r\n    function contribute() public payable {\r\n        require(msg.value >= minAmout, \"Insufficient amount\");\r\n\r\n        if (investorsAmount[msg.sender] == 0) {\r\n            investorsAddress.push(msg.sender);\r\n            investorsAmount[msg.sender] = msg.value;\r\n        } else {\r\n            investorsAmount[msg.sender] += msg.value;\r\n        }\r\n\r\n        emit Contribute(msg.sender, msg.value);\r\n    }\r\n\r\n    function createRequest(\r\n        uint256 amount,\r\n        string memory desc,\r\n        address payable recipient\r\n    ) public onlyOwner {\r\n        require(address(this).balance >= targetAmount, \"Not met goal yet.\");\r\n\r\n        Request storage newReq = requests[reqIndex++];\r\n        newReq.amount = amount;\r\n        newReq.description = desc;\r\n        newReq.recipient = recipient;\r\n        newReq.isDone = false;\r\n        newReq.accreditCount = 0;\r\n    }\r\n\r\n    function accreditRequest(uint256 ind) public {\r\n        Request storage request = requests[ind];\r\n\r\n        require(investorsAmount[msg.sender] > 0, \"Not an investor\");\r\n        require(\r\n            !request.investorsAccredited[msg.sender],\r\n            \"Has already given credit for\"\r\n        );\r\n        require(!request.isDone, \"Request has already been accredited\");\r\n\r\n        request.investorsAccredited[msg.sender] = true;\r\n        request.accreditCount++;\r\n    }\r\n\r\n    function resolveRequest(uint256 ind) external onlyOwner {\r\n        Request storage request = requests[ind];\r\n\r\n        require(\r\n            request.accreditCount > (investorsAddress.length / 2),\r\n            \"Not enough votes\"\r\n        );\r\n        require(!request.isDone, \"Has been done\");\r\n\r\n        require(request.amount <= address(this).balance, \"Invalid amount\");\r\n        (bool ok, ) = request.recipient.call{value: request.amount}(\"\");\r\n        require(ok, \"Transfer failed.\");\r\n        request.isDone = true;\r\n    }\r\n\r\n    function removeInvestorAddress(address inv) internal returns (bool) {\r\n        bool found = false;\r\n        uint256 pos;\r\n        for (uint256 i = 0; i < investorsAddress.length; i++) {\r\n            if (investorsAddress[i] == inv) {\r\n                pos = i;\r\n                found = true;\r\n                break;\r\n            }\r\n        }\r\n        if (!found) return found;\r\n\r\n        for (uint256 i = pos; i < investorsAddress.length - 1; i++) {\r\n            investorsAddress[i] = investorsAddress[i + 1];\r\n        }\r\n        investorsAddress.pop();\r\n        return found;\r\n    }\r\n\r\n    function withdraw() external {\r\n        require(address(this).balance < targetAmount, \"Goal has been achieved\");\r\n        require(block.timestamp > finishTime, \"Not met finishing time\");\r\n\r\n        uint256 amountToWithdraw = investorsAmount[msg.sender];\r\n        investorsAmount[msg.sender] = 0;\r\n        (bool ok, ) = msg.sender.call{value: amountToWithdraw}(\"\");\r\n        require(ok, \"Transfer failed.\");\r\n        require(\r\n            removeInvestorAddress(msg.sender),\r\n            \"Ditching off the address failed\"\r\n        );\r\n    }\r\n\r\n    function getIsAccreditedRequest(uint256 ind) external view returns (bool) {\r\n        Request storage req = requests[ind];\r\n        return req.investorsAccredited[msg.sender];\r\n    }\r\n\r\n    function info()\r\n        public\r\n        view\r\n        returns (\r\n            string memory,\r\n            string memory,\r\n            address,\r\n            uint256,\r\n            uint256,\r\n            uint256,\r\n            uint256\r\n        )\r\n    {\r\n        return (\r\n            name,\r\n            description,\r\n            owner,\r\n            minAmout,\r\n            targetAmount,\r\n            finishTime,\r\n            address(this).balance\r\n        );\r\n    }\r\n\r\n    function getInvestors() external view returns (uint256) {\r\n        return investorsAddress.length;\r\n    }\r\n\r\n    function getInvestorsAddress() external view returns (address[] memory) {\r\n        return investorsAddress;\r\n    }\r\n}\r\n",
  "sourcePath": "C:\\Users\\lethanhviet\\Desktop\\Repo\\crowdfunding\\contracts\\Project.sol",
  "compiler": {
    "name": "solc",
    "version": "0.8.14+commit.80d49f37.Emscripten.clang"
  },
  "schemaVersion": "3.4.7",
  "updatedAt": "2022-06-18T19:39:24.076Z",
  "networkType": "ethereum",
  "devdoc": {
    "kind": "dev",
    "methods": {},
    "version": 1
  },
  "userdoc": {
    "kind": "user",
    "methods": {},
    "version": 1
  }
}